{
	"organization.sol": {
		"organization": {
			"abi": [
				{
					"inputs": [
						{
							"internalType": "uint256",
							"name": "",
							"type": "uint256"
						}
					],
					"name": "Campaigns",
					"outputs": [
						{
							"internalType": "uint256",
							"name": "owner",
							"type": "uint256"
						},
						{
							"internalType": "string",
							"name": "name",
							"type": "string"
						},
						{
							"internalType": "string",
							"name": "description",
							"type": "string"
						},
						{
							"internalType": "uint256",
							"name": "fund_required",
							"type": "uint256"
						},
						{
							"internalType": "uint256",
							"name": "recive_amount",
							"type": "uint256"
						},
						{
							"internalType": "string",
							"name": "image",
							"type": "string"
						},
						{
							"internalType": "uint256",
							"name": "deadLine",
							"type": "uint256"
						}
					],
					"stateMutability": "view",
					"type": "function"
				},
				{
					"inputs": [
						{
							"internalType": "uint256",
							"name": "_owner",
							"type": "uint256"
						},
						{
							"internalType": "string",
							"name": "_name",
							"type": "string"
						},
						{
							"internalType": "string",
							"name": "_description",
							"type": "string"
						},
						{
							"internalType": "uint256",
							"name": "_fund_required",
							"type": "uint256"
						},
						{
							"internalType": "uint256",
							"name": "_recive_amount",
							"type": "uint256"
						},
						{
							"internalType": "string",
							"name": "_image",
							"type": "string"
						},
						{
							"internalType": "uint256",
							"name": "_deadLine",
							"type": "uint256"
						}
					],
					"name": "createCampaign",
					"outputs": [
						{
							"internalType": "bool",
							"name": "",
							"type": "bool"
						}
					],
					"stateMutability": "nonpayable",
					"type": "function"
				},
				{
					"inputs": [],
					"name": "numOfListCampaign",
					"outputs": [
						{
							"internalType": "uint256",
							"name": "",
							"type": "uint256"
						}
					],
					"stateMutability": "view",
					"type": "function"
				}
			],
			"devdoc": {
				"kind": "dev",
				"methods": {},
				"version": 1
			},
			"evm": {
				"assembly": "    /* \"organization.sol\":61:691  contract organization{... */\n  mstore(0x40, 0x80)\n    /* \"organization.sol\":393:394  0 */\n  0x00\n    /* \"organization.sol\":357:394  uint256 public  numOfListCampaign = 0 */\n  0x01\n  sstore\n    /* \"organization.sol\":61:691  contract organization{... */\n  callvalue\n  dup1\n  iszero\n  tag_1\n  jumpi\n  0x00\n  dup1\n  revert\ntag_1:\n  pop\n  dataSize(sub_0)\n  dup1\n  dataOffset(sub_0)\n  0x00\n  codecopy\n  0x00\n  return\nstop\n\nsub_0: assembly {\n        /* \"organization.sol\":61:691  contract organization{... */\n      mstore(0x40, 0x80)\n      callvalue\n      dup1\n      iszero\n      tag_1\n      jumpi\n      0x00\n      dup1\n      revert\n    tag_1:\n      pop\n      jumpi(tag_2, lt(calldatasize, 0x04))\n      shr(0xe0, calldataload(0x00))\n      dup1\n      0x4013be10\n      eq\n      tag_3\n      jumpi\n      dup1\n      0x81b128cb\n      eq\n      tag_4\n      jumpi\n      dup1\n      0xfd39911b\n      eq\n      tag_5\n      jumpi\n    tag_2:\n      0x00\n      dup1\n      revert\n        /* \"organization.sol\":304:350  mapping(uint256 => Campaign) public  Campaigns */\n    tag_3:\n      tag_6\n      0x04\n      dup1\n      calldatasize\n      sub\n      dup2\n      add\n      swap1\n      tag_7\n      swap2\n      swap1\n      tag_8\n      jump\t// in\n    tag_7:\n      tag_9\n      jump\t// in\n    tag_6:\n      mload(0x40)\n      tag_10\n      swap8\n      swap7\n      swap6\n      swap5\n      swap4\n      swap3\n      swap2\n      swap1\n      tag_11\n      jump\t// in\n    tag_10:\n      mload(0x40)\n      dup1\n      swap2\n      sub\n      swap1\n      return\n        /* \"organization.sol\":403:688  function createCampaign(... */\n    tag_4:\n      tag_12\n      0x04\n      dup1\n      calldatasize\n      sub\n      dup2\n      add\n      swap1\n      tag_13\n      swap2\n      swap1\n      tag_14\n      jump\t// in\n    tag_13:\n      tag_15\n      jump\t// in\n    tag_12:\n      mload(0x40)\n      tag_16\n      swap2\n      swap1\n      tag_17\n      jump\t// in\n    tag_16:\n      mload(0x40)\n      dup1\n      swap2\n      sub\n      swap1\n      return\n        /* \"organization.sol\":357:394  uint256 public  numOfListCampaign = 0 */\n    tag_5:\n      tag_18\n      tag_19\n      jump\t// in\n    tag_18:\n      mload(0x40)\n      tag_20\n      swap2\n      swap1\n      tag_21\n      jump\t// in\n    tag_20:\n      mload(0x40)\n      dup1\n      swap2\n      sub\n      swap1\n      return\n        /* \"organization.sol\":304:350  mapping(uint256 => Campaign) public  Campaigns */\n    tag_9:\n      mstore(0x20, 0x00)\n      dup1\n      0x00\n      mstore\n      keccak256(0x00, 0x40)\n      0x00\n      swap2\n      pop\n      swap1\n      pop\n      dup1\n      0x00\n      add\n      sload\n      swap1\n      dup1\n      0x01\n      add\n      dup1\n      sload\n      tag_22\n      swap1\n      tag_23\n      jump\t// in\n    tag_22:\n      dup1\n      0x1f\n      add\n      0x20\n      dup1\n      swap2\n      div\n      mul\n      0x20\n      add\n      mload(0x40)\n      swap1\n      dup2\n      add\n      0x40\n      mstore\n      dup1\n      swap3\n      swap2\n      swap1\n      dup2\n      dup2\n      mstore\n      0x20\n      add\n      dup3\n      dup1\n      sload\n      tag_24\n      swap1\n      tag_23\n      jump\t// in\n    tag_24:\n      dup1\n      iszero\n      tag_25\n      jumpi\n      dup1\n      0x1f\n      lt\n      tag_26\n      jumpi\n      0x0100\n      dup1\n      dup4\n      sload\n      div\n      mul\n      dup4\n      mstore\n      swap2\n      0x20\n      add\n      swap2\n      jump(tag_25)\n    tag_26:\n      dup3\n      add\n      swap2\n      swap1\n      0x00\n      mstore\n      keccak256(0x00, 0x20)\n      swap1\n    tag_27:\n      dup2\n      sload\n      dup2\n      mstore\n      swap1\n      0x01\n      add\n      swap1\n      0x20\n      add\n      dup1\n      dup4\n      gt\n      tag_27\n      jumpi\n      dup3\n      swap1\n      sub\n      0x1f\n      and\n      dup3\n      add\n      swap2\n    tag_25:\n      pop\n      pop\n      pop\n      pop\n      pop\n      swap1\n      dup1\n      0x02\n      add\n      dup1\n      sload\n      tag_28\n      swap1\n      tag_23\n      jump\t// in\n    tag_28:\n      dup1\n      0x1f\n      add\n      0x20\n      dup1\n      swap2\n      div\n      mul\n      0x20\n      add\n      mload(0x40)\n      swap1\n      dup2\n      add\n      0x40\n      mstore\n      dup1\n      swap3\n      swap2\n      swap1\n      dup2\n      dup2\n      mstore\n      0x20\n      add\n      dup3\n      dup1\n      sload\n      tag_29\n      swap1\n      tag_23\n      jump\t// in\n    tag_29:\n      dup1\n      iszero\n      tag_30\n      jumpi\n      dup1\n      0x1f\n      lt\n      tag_31\n      jumpi\n      0x0100\n      dup1\n      dup4\n      sload\n      div\n      mul\n      dup4\n      mstore\n      swap2\n      0x20\n      add\n      swap2\n      jump(tag_30)\n    tag_31:\n      dup3\n      add\n      swap2\n      swap1\n      0x00\n      mstore\n      keccak256(0x00, 0x20)\n      swap1\n    tag_32:\n      dup2\n      sload\n      dup2\n      mstore\n      swap1\n      0x01\n      add\n      swap1\n      0x20\n      add\n      dup1\n      dup4\n      gt\n      tag_32\n      jumpi\n      dup3\n      swap1\n      sub\n      0x1f\n      and\n      dup3\n      add\n      swap2\n    tag_30:\n      pop\n      pop\n      pop\n      pop\n      pop\n      swap1\n      dup1\n      0x03\n      add\n      sload\n      swap1\n      dup1\n      0x04\n      add\n      sload\n      swap1\n      dup1\n      0x05\n      add\n      dup1\n      sload\n      tag_33\n      swap1\n      tag_23\n      jump\t// in\n    tag_33:\n      dup1\n      0x1f\n      add\n      0x20\n      dup1\n      swap2\n      div\n      mul\n      0x20\n      add\n      mload(0x40)\n      swap1\n      dup2\n      add\n      0x40\n      mstore\n      dup1\n      swap3\n      swap2\n      swap1\n      dup2\n      dup2\n      mstore\n      0x20\n      add\n      dup3\n      dup1\n      sload\n      tag_34\n      swap1\n      tag_23\n      jump\t// in\n    tag_34:\n      dup1\n      iszero\n      tag_35\n      jumpi\n      dup1\n      0x1f\n      lt\n      tag_36\n      jumpi\n      0x0100\n      dup1\n      dup4\n      sload\n      div\n      mul\n      dup4\n      mstore\n      swap2\n      0x20\n      add\n      swap2\n      jump(tag_35)\n    tag_36:\n      dup3\n      add\n      swap2\n      swap1\n      0x00\n      mstore\n      keccak256(0x00, 0x20)\n      swap1\n    tag_37:\n      dup2\n      sload\n      dup2\n      mstore\n      swap1\n      0x01\n      add\n      swap1\n      0x20\n      add\n      dup1\n      dup4\n      gt\n      tag_37\n      jumpi\n      dup3\n      swap1\n      sub\n      0x1f\n      and\n      dup3\n      add\n      swap2\n    tag_35:\n      pop\n      pop\n      pop\n      pop\n      pop\n      swap1\n      dup1\n      0x06\n      add\n      sload\n      swap1\n      pop\n      dup8\n      jump\t// out\n        /* \"organization.sol\":403:688  function createCampaign(... */\n    tag_15:\n        /* \"organization.sol\":665:669  bool */\n      0x00\n        /* \"organization.sol\":403:688  function createCampaign(... */\n      swap8\n      swap7\n      pop\n      pop\n      pop\n      pop\n      pop\n      pop\n      pop\n      jump\t// out\n        /* \"organization.sol\":357:394  uint256 public  numOfListCampaign = 0 */\n    tag_19:\n      sload(0x01)\n      dup2\n      jump\t// out\n        /* \"#utility.yul\":7:82   */\n    tag_39:\n        /* \"#utility.yul\":40:46   */\n      0x00\n        /* \"#utility.yul\":73:75   */\n      0x40\n        /* \"#utility.yul\":67:76   */\n      mload\n        /* \"#utility.yul\":57:76   */\n      swap1\n      pop\n        /* \"#utility.yul\":7:82   */\n      swap1\n      jump\t// out\n        /* \"#utility.yul\":88:205   */\n    tag_40:\n        /* \"#utility.yul\":197:198   */\n      0x00\n        /* \"#utility.yul\":194:195   */\n      dup1\n        /* \"#utility.yul\":187:199   */\n      revert\n        /* \"#utility.yul\":211:328   */\n    tag_41:\n        /* \"#utility.yul\":320:321   */\n      0x00\n        /* \"#utility.yul\":317:318   */\n      dup1\n        /* \"#utility.yul\":310:322   */\n      revert\n        /* \"#utility.yul\":334:411   */\n    tag_42:\n        /* \"#utility.yul\":371:378   */\n      0x00\n        /* \"#utility.yul\":400:405   */\n      dup2\n        /* \"#utility.yul\":389:405   */\n      swap1\n      pop\n        /* \"#utility.yul\":334:411   */\n      swap2\n      swap1\n      pop\n      jump\t// out\n        /* \"#utility.yul\":417:539   */\n    tag_43:\n        /* \"#utility.yul\":490:514   */\n      tag_69\n        /* \"#utility.yul\":508:513   */\n      dup2\n        /* \"#utility.yul\":490:514   */\n      tag_42\n      jump\t// in\n    tag_69:\n        /* \"#utility.yul\":483:488   */\n      dup2\n        /* \"#utility.yul\":480:515   */\n      eq\n        /* \"#utility.yul\":470:533   */\n      tag_70\n      jumpi\n        /* \"#utility.yul\":529:530   */\n      0x00\n        /* \"#utility.yul\":526:527   */\n      dup1\n        /* \"#utility.yul\":519:531   */\n      revert\n        /* \"#utility.yul\":470:533   */\n    tag_70:\n        /* \"#utility.yul\":417:539   */\n      pop\n      jump\t// out\n        /* \"#utility.yul\":545:684   */\n    tag_44:\n        /* \"#utility.yul\":591:596   */\n      0x00\n        /* \"#utility.yul\":629:635   */\n      dup2\n        /* \"#utility.yul\":616:636   */\n      calldataload\n        /* \"#utility.yul\":607:636   */\n      swap1\n      pop\n        /* \"#utility.yul\":645:678   */\n      tag_72\n        /* \"#utility.yul\":672:677   */\n      dup2\n        /* \"#utility.yul\":645:678   */\n      tag_43\n      jump\t// in\n    tag_72:\n        /* \"#utility.yul\":545:684   */\n      swap3\n      swap2\n      pop\n      pop\n      jump\t// out\n        /* \"#utility.yul\":690:1019   */\n    tag_8:\n        /* \"#utility.yul\":749:755   */\n      0x00\n        /* \"#utility.yul\":798:800   */\n      0x20\n        /* \"#utility.yul\":786:795   */\n      dup3\n        /* \"#utility.yul\":777:784   */\n      dup5\n        /* \"#utility.yul\":773:796   */\n      sub\n        /* \"#utility.yul\":769:801   */\n      slt\n        /* \"#utility.yul\":766:885   */\n      iszero\n      tag_74\n      jumpi\n        /* \"#utility.yul\":804:883   */\n      tag_75\n      tag_40\n      jump\t// in\n    tag_75:\n        /* \"#utility.yul\":766:885   */\n    tag_74:\n        /* \"#utility.yul\":924:925   */\n      0x00\n        /* \"#utility.yul\":949:1002   */\n      tag_76\n        /* \"#utility.yul\":994:1001   */\n      dup5\n        /* \"#utility.yul\":985:991   */\n      dup3\n        /* \"#utility.yul\":974:983   */\n      dup6\n        /* \"#utility.yul\":970:992   */\n      add\n        /* \"#utility.yul\":949:1002   */\n      tag_44\n      jump\t// in\n    tag_76:\n        /* \"#utility.yul\":939:1002   */\n      swap2\n      pop\n        /* \"#utility.yul\":895:1012   */\n      pop\n        /* \"#utility.yul\":690:1019   */\n      swap3\n      swap2\n      pop\n      pop\n      jump\t// out\n        /* \"#utility.yul\":1025:1143   */\n    tag_45:\n        /* \"#utility.yul\":1112:1136   */\n      tag_78\n        /* \"#utility.yul\":1130:1135   */\n      dup2\n        /* \"#utility.yul\":1112:1136   */\n      tag_42\n      jump\t// in\n    tag_78:\n        /* \"#utility.yul\":1107:1110   */\n      dup3\n        /* \"#utility.yul\":1100:1137   */\n      mstore\n        /* \"#utility.yul\":1025:1143   */\n      pop\n      pop\n      jump\t// out\n        /* \"#utility.yul\":1149:1248   */\n    tag_46:\n        /* \"#utility.yul\":1201:1207   */\n      0x00\n        /* \"#utility.yul\":1235:1240   */\n      dup2\n        /* \"#utility.yul\":1229:1241   */\n      mload\n        /* \"#utility.yul\":1219:1241   */\n      swap1\n      pop\n        /* \"#utility.yul\":1149:1248   */\n      swap2\n      swap1\n      pop\n      jump\t// out\n        /* \"#utility.yul\":1254:1423   */\n    tag_47:\n        /* \"#utility.yul\":1338:1349   */\n      0x00\n        /* \"#utility.yul\":1372:1378   */\n      dup3\n        /* \"#utility.yul\":1367:1370   */\n      dup3\n        /* \"#utility.yul\":1360:1379   */\n      mstore\n        /* \"#utility.yul\":1412:1416   */\n      0x20\n        /* \"#utility.yul\":1407:1410   */\n      dup3\n        /* \"#utility.yul\":1403:1417   */\n      add\n        /* \"#utility.yul\":1388:1417   */\n      swap1\n      pop\n        /* \"#utility.yul\":1254:1423   */\n      swap3\n      swap2\n      pop\n      pop\n      jump\t// out\n        /* \"#utility.yul\":1429:1568   */\n    tag_48:\n        /* \"#utility.yul\":1518:1524   */\n      dup3\n        /* \"#utility.yul\":1513:1516   */\n      dup2\n        /* \"#utility.yul\":1508:1511   */\n      dup4\n        /* \"#utility.yul\":1502:1525   */\n      mcopy\n        /* \"#utility.yul\":1559:1560   */\n      0x00\n        /* \"#utility.yul\":1550:1556   */\n      dup4\n        /* \"#utility.yul\":1545:1548   */\n      dup4\n        /* \"#utility.yul\":1541:1557   */\n      add\n        /* \"#utility.yul\":1534:1561   */\n      mstore\n        /* \"#utility.yul\":1429:1568   */\n      pop\n      pop\n      pop\n      jump\t// out\n        /* \"#utility.yul\":1574:1676   */\n    tag_49:\n        /* \"#utility.yul\":1615:1621   */\n      0x00\n        /* \"#utility.yul\":1666:1668   */\n      0x1f\n        /* \"#utility.yul\":1662:1669   */\n      not\n        /* \"#utility.yul\":1657:1659   */\n      0x1f\n        /* \"#utility.yul\":1650:1655   */\n      dup4\n        /* \"#utility.yul\":1646:1660   */\n      add\n        /* \"#utility.yul\":1642:1670   */\n      and\n        /* \"#utility.yul\":1632:1670   */\n      swap1\n      pop\n        /* \"#utility.yul\":1574:1676   */\n      swap2\n      swap1\n      pop\n      jump\t// out\n        /* \"#utility.yul\":1682:2059   */\n    tag_50:\n        /* \"#utility.yul\":1770:1773   */\n      0x00\n        /* \"#utility.yul\":1798:1837   */\n      tag_84\n        /* \"#utility.yul\":1831:1836   */\n      dup3\n        /* \"#utility.yul\":1798:1837   */\n      tag_46\n      jump\t// in\n    tag_84:\n        /* \"#utility.yul\":1853:1924   */\n      tag_85\n        /* \"#utility.yul\":1917:1923   */\n      dup2\n        /* \"#utility.yul\":1912:1915   */\n      dup6\n        /* \"#utility.yul\":1853:1924   */\n      tag_47\n      jump\t// in\n    tag_85:\n        /* \"#utility.yul\":1846:1924   */\n      swap4\n      pop\n        /* \"#utility.yul\":1933:1998   */\n      tag_86\n        /* \"#utility.yul\":1991:1997   */\n      dup2\n        /* \"#utility.yul\":1986:1989   */\n      dup6\n        /* \"#utility.yul\":1979:1983   */\n      0x20\n        /* \"#utility.yul\":1972:1977   */\n      dup7\n        /* \"#utility.yul\":1968:1984   */\n      add\n        /* \"#utility.yul\":1933:1998   */\n      tag_48\n      jump\t// in\n    tag_86:\n        /* \"#utility.yul\":2023:2052   */\n      tag_87\n        /* \"#utility.yul\":2045:2051   */\n      dup2\n        /* \"#utility.yul\":2023:2052   */\n      tag_49\n      jump\t// in\n    tag_87:\n        /* \"#utility.yul\":2018:2021   */\n      dup5\n        /* \"#utility.yul\":2014:2053   */\n      add\n        /* \"#utility.yul\":2007:2053   */\n      swap2\n      pop\n        /* \"#utility.yul\":1774:2059   */\n      pop\n        /* \"#utility.yul\":1682:2059   */\n      swap3\n      swap2\n      pop\n      pop\n      jump\t// out\n        /* \"#utility.yul\":2065:3224   */\n    tag_11:\n        /* \"#utility.yul\":2386:2390   */\n      0x00\n        /* \"#utility.yul\":2424:2427   */\n      0xe0\n        /* \"#utility.yul\":2413:2422   */\n      dup3\n        /* \"#utility.yul\":2409:2428   */\n      add\n        /* \"#utility.yul\":2401:2428   */\n      swap1\n      pop\n        /* \"#utility.yul\":2438:2509   */\n      tag_89\n        /* \"#utility.yul\":2506:2507   */\n      0x00\n        /* \"#utility.yul\":2495:2504   */\n      dup4\n        /* \"#utility.yul\":2491:2508   */\n      add\n        /* \"#utility.yul\":2482:2488   */\n      dup11\n        /* \"#utility.yul\":2438:2509   */\n      tag_45\n      jump\t// in\n    tag_89:\n        /* \"#utility.yul\":2556:2565   */\n      dup2\n        /* \"#utility.yul\":2550:2554   */\n      dup2\n        /* \"#utility.yul\":2546:2566   */\n      sub\n        /* \"#utility.yul\":2541:2543   */\n      0x20\n        /* \"#utility.yul\":2530:2539   */\n      dup4\n        /* \"#utility.yul\":2526:2544   */\n      add\n        /* \"#utility.yul\":2519:2567   */\n      mstore\n        /* \"#utility.yul\":2584:2662   */\n      tag_90\n        /* \"#utility.yul\":2657:2661   */\n      dup2\n        /* \"#utility.yul\":2648:2654   */\n      dup10\n        /* \"#utility.yul\":2584:2662   */\n      tag_50\n      jump\t// in\n    tag_90:\n        /* \"#utility.yul\":2576:2662   */\n      swap1\n      pop\n        /* \"#utility.yul\":2709:2718   */\n      dup2\n        /* \"#utility.yul\":2703:2707   */\n      dup2\n        /* \"#utility.yul\":2699:2719   */\n      sub\n        /* \"#utility.yul\":2694:2696   */\n      0x40\n        /* \"#utility.yul\":2683:2692   */\n      dup4\n        /* \"#utility.yul\":2679:2697   */\n      add\n        /* \"#utility.yul\":2672:2720   */\n      mstore\n        /* \"#utility.yul\":2737:2815   */\n      tag_91\n        /* \"#utility.yul\":2810:2814   */\n      dup2\n        /* \"#utility.yul\":2801:2807   */\n      dup9\n        /* \"#utility.yul\":2737:2815   */\n      tag_50\n      jump\t// in\n    tag_91:\n        /* \"#utility.yul\":2729:2815   */\n      swap1\n      pop\n        /* \"#utility.yul\":2825:2897   */\n      tag_92\n        /* \"#utility.yul\":2893:2895   */\n      0x60\n        /* \"#utility.yul\":2882:2891   */\n      dup4\n        /* \"#utility.yul\":2878:2896   */\n      add\n        /* \"#utility.yul\":2869:2875   */\n      dup8\n        /* \"#utility.yul\":2825:2897   */\n      tag_45\n      jump\t// in\n    tag_92:\n        /* \"#utility.yul\":2907:2980   */\n      tag_93\n        /* \"#utility.yul\":2975:2978   */\n      0x80\n        /* \"#utility.yul\":2964:2973   */\n      dup4\n        /* \"#utility.yul\":2960:2979   */\n      add\n        /* \"#utility.yul\":2951:2957   */\n      dup7\n        /* \"#utility.yul\":2907:2980   */\n      tag_45\n      jump\t// in\n    tag_93:\n        /* \"#utility.yul\":3028:3037   */\n      dup2\n        /* \"#utility.yul\":3022:3026   */\n      dup2\n        /* \"#utility.yul\":3018:3038   */\n      sub\n        /* \"#utility.yul\":3012:3015   */\n      0xa0\n        /* \"#utility.yul\":3001:3010   */\n      dup4\n        /* \"#utility.yul\":2997:3016   */\n      add\n        /* \"#utility.yul\":2990:3039   */\n      mstore\n        /* \"#utility.yul\":3056:3134   */\n      tag_94\n        /* \"#utility.yul\":3129:3133   */\n      dup2\n        /* \"#utility.yul\":3120:3126   */\n      dup6\n        /* \"#utility.yul\":3056:3134   */\n      tag_50\n      jump\t// in\n    tag_94:\n        /* \"#utility.yul\":3048:3134   */\n      swap1\n      pop\n        /* \"#utility.yul\":3144:3217   */\n      tag_95\n        /* \"#utility.yul\":3212:3215   */\n      0xc0\n        /* \"#utility.yul\":3201:3210   */\n      dup4\n        /* \"#utility.yul\":3197:3216   */\n      add\n        /* \"#utility.yul\":3188:3194   */\n      dup5\n        /* \"#utility.yul\":3144:3217   */\n      tag_45\n      jump\t// in\n    tag_95:\n        /* \"#utility.yul\":2065:3224   */\n      swap9\n      swap8\n      pop\n      pop\n      pop\n      pop\n      pop\n      pop\n      pop\n      pop\n      jump\t// out\n        /* \"#utility.yul\":3230:3347   */\n    tag_51:\n        /* \"#utility.yul\":3339:3340   */\n      0x00\n        /* \"#utility.yul\":3336:3337   */\n      dup1\n        /* \"#utility.yul\":3329:3341   */\n      revert\n        /* \"#utility.yul\":3353:3470   */\n    tag_52:\n        /* \"#utility.yul\":3462:3463   */\n      0x00\n        /* \"#utility.yul\":3459:3460   */\n      dup1\n        /* \"#utility.yul\":3452:3464   */\n      revert\n        /* \"#utility.yul\":3476:3656   */\n    tag_53:\n        /* \"#utility.yul\":3524:3601   */\n      0x4e487b7100000000000000000000000000000000000000000000000000000000\n        /* \"#utility.yul\":3521:3522   */\n      0x00\n        /* \"#utility.yul\":3514:3602   */\n      mstore\n        /* \"#utility.yul\":3621:3625   */\n      0x41\n        /* \"#utility.yul\":3618:3619   */\n      0x04\n        /* \"#utility.yul\":3611:3626   */\n      mstore\n        /* \"#utility.yul\":3645:3649   */\n      0x24\n        /* \"#utility.yul\":3642:3643   */\n      0x00\n        /* \"#utility.yul\":3635:3650   */\n      revert\n        /* \"#utility.yul\":3662:3943   */\n    tag_54:\n        /* \"#utility.yul\":3745:3772   */\n      tag_100\n        /* \"#utility.yul\":3767:3771   */\n      dup3\n        /* \"#utility.yul\":3745:3772   */\n      tag_49\n      jump\t// in\n    tag_100:\n        /* \"#utility.yul\":3737:3743   */\n      dup2\n        /* \"#utility.yul\":3733:3773   */\n      add\n        /* \"#utility.yul\":3875:3881   */\n      dup2\n        /* \"#utility.yul\":3863:3873   */\n      dup2\n        /* \"#utility.yul\":3860:3882   */\n      lt\n        /* \"#utility.yul\":3839:3857   */\n      0xffffffffffffffff\n        /* \"#utility.yul\":3827:3837   */\n      dup3\n        /* \"#utility.yul\":3824:3858   */\n      gt\n        /* \"#utility.yul\":3821:3883   */\n      or\n        /* \"#utility.yul\":3818:3906   */\n      iszero\n      tag_101\n      jumpi\n        /* \"#utility.yul\":3886:3904   */\n      tag_102\n      tag_53\n      jump\t// in\n    tag_102:\n        /* \"#utility.yul\":3818:3906   */\n    tag_101:\n        /* \"#utility.yul\":3926:3936   */\n      dup1\n        /* \"#utility.yul\":3922:3924   */\n      0x40\n        /* \"#utility.yul\":3915:3937   */\n      mstore\n        /* \"#utility.yul\":3705:3943   */\n      pop\n        /* \"#utility.yul\":3662:3943   */\n      pop\n      pop\n      jump\t// out\n        /* \"#utility.yul\":3949:4078   */\n    tag_55:\n        /* \"#utility.yul\":3983:3989   */\n      0x00\n        /* \"#utility.yul\":4010:4030   */\n      tag_104\n      tag_39\n      jump\t// in\n    tag_104:\n        /* \"#utility.yul\":4000:4030   */\n      swap1\n      pop\n        /* \"#utility.yul\":4039:4072   */\n      tag_105\n        /* \"#utility.yul\":4067:4071   */\n      dup3\n        /* \"#utility.yul\":4059:4065   */\n      dup3\n        /* \"#utility.yul\":4039:4072   */\n      tag_54\n      jump\t// in\n    tag_105:\n        /* \"#utility.yul\":3949:4078   */\n      swap2\n      swap1\n      pop\n      jump\t// out\n        /* \"#utility.yul\":4084:4392   */\n    tag_56:\n        /* \"#utility.yul\":4146:4150   */\n      0x00\n        /* \"#utility.yul\":4236:4254   */\n      0xffffffffffffffff\n        /* \"#utility.yul\":4228:4234   */\n      dup3\n        /* \"#utility.yul\":4225:4255   */\n      gt\n        /* \"#utility.yul\":4222:4278   */\n      iszero\n      tag_107\n      jumpi\n        /* \"#utility.yul\":4258:4276   */\n      tag_108\n      tag_53\n      jump\t// in\n    tag_108:\n        /* \"#utility.yul\":4222:4278   */\n    tag_107:\n        /* \"#utility.yul\":4296:4325   */\n      tag_109\n        /* \"#utility.yul\":4318:4324   */\n      dup3\n        /* \"#utility.yul\":4296:4325   */\n      tag_49\n      jump\t// in\n    tag_109:\n        /* \"#utility.yul\":4288:4325   */\n      swap1\n      pop\n        /* \"#utility.yul\":4380:4384   */\n      0x20\n        /* \"#utility.yul\":4374:4378   */\n      dup2\n        /* \"#utility.yul\":4370:4385   */\n      add\n        /* \"#utility.yul\":4362:4385   */\n      swap1\n      pop\n        /* \"#utility.yul\":4084:4392   */\n      swap2\n      swap1\n      pop\n      jump\t// out\n        /* \"#utility.yul\":4398:4546   */\n    tag_57:\n        /* \"#utility.yul\":4496:4502   */\n      dup3\n        /* \"#utility.yul\":4491:4494   */\n      dup2\n        /* \"#utility.yul\":4486:4489   */\n      dup4\n        /* \"#utility.yul\":4473:4503   */\n      calldatacopy\n        /* \"#utility.yul\":4537:4538   */\n      0x00\n        /* \"#utility.yul\":4528:4534   */\n      dup4\n        /* \"#utility.yul\":4523:4526   */\n      dup4\n        /* \"#utility.yul\":4519:4535   */\n      add\n        /* \"#utility.yul\":4512:4539   */\n      mstore\n        /* \"#utility.yul\":4398:4546   */\n      pop\n      pop\n      pop\n      jump\t// out\n        /* \"#utility.yul\":4552:4977   */\n    tag_58:\n        /* \"#utility.yul\":4630:4635   */\n      0x00\n        /* \"#utility.yul\":4655:4721   */\n      tag_112\n        /* \"#utility.yul\":4671:4720   */\n      tag_113\n        /* \"#utility.yul\":4713:4719   */\n      dup5\n        /* \"#utility.yul\":4671:4720   */\n      tag_56\n      jump\t// in\n    tag_113:\n        /* \"#utility.yul\":4655:4721   */\n      tag_55\n      jump\t// in\n    tag_112:\n        /* \"#utility.yul\":4646:4721   */\n      swap1\n      pop\n        /* \"#utility.yul\":4744:4750   */\n      dup3\n        /* \"#utility.yul\":4737:4742   */\n      dup2\n        /* \"#utility.yul\":4730:4751   */\n      mstore\n        /* \"#utility.yul\":4782:4786   */\n      0x20\n        /* \"#utility.yul\":4775:4780   */\n      dup2\n        /* \"#utility.yul\":4771:4787   */\n      add\n        /* \"#utility.yul\":4820:4823   */\n      dup5\n        /* \"#utility.yul\":4811:4817   */\n      dup5\n        /* \"#utility.yul\":4806:4809   */\n      dup5\n        /* \"#utility.yul\":4802:4818   */\n      add\n        /* \"#utility.yul\":4799:4824   */\n      gt\n        /* \"#utility.yul\":4796:4908   */\n      iszero\n      tag_114\n      jumpi\n        /* \"#utility.yul\":4827:4906   */\n      tag_115\n      tag_52\n      jump\t// in\n    tag_115:\n        /* \"#utility.yul\":4796:4908   */\n    tag_114:\n        /* \"#utility.yul\":4917:4971   */\n      tag_116\n        /* \"#utility.yul\":4964:4970   */\n      dup5\n        /* \"#utility.yul\":4959:4962   */\n      dup3\n        /* \"#utility.yul\":4954:4957   */\n      dup6\n        /* \"#utility.yul\":4917:4971   */\n      tag_57\n      jump\t// in\n    tag_116:\n        /* \"#utility.yul\":4636:4977   */\n      pop\n        /* \"#utility.yul\":4552:4977   */\n      swap4\n      swap3\n      pop\n      pop\n      pop\n      jump\t// out\n        /* \"#utility.yul\":4997:5337   */\n    tag_59:\n        /* \"#utility.yul\":5053:5058   */\n      0x00\n        /* \"#utility.yul\":5102:5105   */\n      dup3\n        /* \"#utility.yul\":5095:5099   */\n      0x1f\n        /* \"#utility.yul\":5087:5093   */\n      dup4\n        /* \"#utility.yul\":5083:5100   */\n      add\n        /* \"#utility.yul\":5079:5106   */\n      slt\n        /* \"#utility.yul\":5069:5191   */\n      tag_118\n      jumpi\n        /* \"#utility.yul\":5110:5189   */\n      tag_119\n      tag_51\n      jump\t// in\n    tag_119:\n        /* \"#utility.yul\":5069:5191   */\n    tag_118:\n        /* \"#utility.yul\":5227:5233   */\n      dup2\n        /* \"#utility.yul\":5214:5234   */\n      calldataload\n        /* \"#utility.yul\":5252:5331   */\n      tag_120\n        /* \"#utility.yul\":5327:5330   */\n      dup5\n        /* \"#utility.yul\":5319:5325   */\n      dup3\n        /* \"#utility.yul\":5312:5316   */\n      0x20\n        /* \"#utility.yul\":5304:5310   */\n      dup7\n        /* \"#utility.yul\":5300:5317   */\n      add\n        /* \"#utility.yul\":5252:5331   */\n      tag_58\n      jump\t// in\n    tag_120:\n        /* \"#utility.yul\":5243:5331   */\n      swap2\n      pop\n        /* \"#utility.yul\":5059:5337   */\n      pop\n        /* \"#utility.yul\":4997:5337   */\n      swap3\n      swap2\n      pop\n      pop\n      jump\t// out\n        /* \"#utility.yul\":5343:7086   */\n    tag_14:\n        /* \"#utility.yul\":5486:5492   */\n      0x00\n        /* \"#utility.yul\":5494:5500   */\n      dup1\n        /* \"#utility.yul\":5502:5508   */\n      0x00\n        /* \"#utility.yul\":5510:5516   */\n      dup1\n        /* \"#utility.yul\":5518:5524   */\n      0x00\n        /* \"#utility.yul\":5526:5532   */\n      dup1\n        /* \"#utility.yul\":5534:5540   */\n      0x00\n        /* \"#utility.yul\":5583:5586   */\n      0xe0\n        /* \"#utility.yul\":5571:5580   */\n      dup9\n        /* \"#utility.yul\":5562:5569   */\n      dup11\n        /* \"#utility.yul\":5558:5581   */\n      sub\n        /* \"#utility.yul\":5554:5587   */\n      slt\n        /* \"#utility.yul\":5551:5671   */\n      iszero\n      tag_122\n      jumpi\n        /* \"#utility.yul\":5590:5669   */\n      tag_123\n      tag_40\n      jump\t// in\n    tag_123:\n        /* \"#utility.yul\":5551:5671   */\n    tag_122:\n        /* \"#utility.yul\":5710:5711   */\n      0x00\n        /* \"#utility.yul\":5735:5788   */\n      tag_124\n        /* \"#utility.yul\":5780:5787   */\n      dup11\n        /* \"#utility.yul\":5771:5777   */\n      dup3\n        /* \"#utility.yul\":5760:5769   */\n      dup12\n        /* \"#utility.yul\":5756:5778   */\n      add\n        /* \"#utility.yul\":5735:5788   */\n      tag_44\n      jump\t// in\n    tag_124:\n        /* \"#utility.yul\":5725:5788   */\n      swap8\n      pop\n        /* \"#utility.yul\":5681:5798   */\n      pop\n        /* \"#utility.yul\":5865:5867   */\n      0x20\n        /* \"#utility.yul\":5854:5863   */\n      dup9\n        /* \"#utility.yul\":5850:5868   */\n      add\n        /* \"#utility.yul\":5837:5869   */\n      calldataload\n        /* \"#utility.yul\":5896:5914   */\n      0xffffffffffffffff\n        /* \"#utility.yul\":5888:5894   */\n      dup2\n        /* \"#utility.yul\":5885:5915   */\n      gt\n        /* \"#utility.yul\":5882:5999   */\n      iszero\n      tag_125\n      jumpi\n        /* \"#utility.yul\":5918:5997   */\n      tag_126\n      tag_41\n      jump\t// in\n    tag_126:\n        /* \"#utility.yul\":5882:5999   */\n    tag_125:\n        /* \"#utility.yul\":6023:6086   */\n      tag_127\n        /* \"#utility.yul\":6078:6085   */\n      dup11\n        /* \"#utility.yul\":6069:6075   */\n      dup3\n        /* \"#utility.yul\":6058:6067   */\n      dup12\n        /* \"#utility.yul\":6054:6076   */\n      add\n        /* \"#utility.yul\":6023:6086   */\n      tag_59\n      jump\t// in\n    tag_127:\n        /* \"#utility.yul\":6013:6086   */\n      swap7\n      pop\n        /* \"#utility.yul\":5808:6096   */\n      pop\n        /* \"#utility.yul\":6163:6165   */\n      0x40\n        /* \"#utility.yul\":6152:6161   */\n      dup9\n        /* \"#utility.yul\":6148:6166   */\n      add\n        /* \"#utility.yul\":6135:6167   */\n      calldataload\n        /* \"#utility.yul\":6194:6212   */\n      0xffffffffffffffff\n        /* \"#utility.yul\":6186:6192   */\n      dup2\n        /* \"#utility.yul\":6183:6213   */\n      gt\n        /* \"#utility.yul\":6180:6297   */\n      iszero\n      tag_128\n      jumpi\n        /* \"#utility.yul\":6216:6295   */\n      tag_129\n      tag_41\n      jump\t// in\n    tag_129:\n        /* \"#utility.yul\":6180:6297   */\n    tag_128:\n        /* \"#utility.yul\":6321:6384   */\n      tag_130\n        /* \"#utility.yul\":6376:6383   */\n      dup11\n        /* \"#utility.yul\":6367:6373   */\n      dup3\n        /* \"#utility.yul\":6356:6365   */\n      dup12\n        /* \"#utility.yul\":6352:6374   */\n      add\n        /* \"#utility.yul\":6321:6384   */\n      tag_59\n      jump\t// in\n    tag_130:\n        /* \"#utility.yul\":6311:6384   */\n      swap6\n      pop\n        /* \"#utility.yul\":6106:6394   */\n      pop\n        /* \"#utility.yul\":6433:6435   */\n      0x60\n        /* \"#utility.yul\":6459:6512   */\n      tag_131\n        /* \"#utility.yul\":6504:6511   */\n      dup11\n        /* \"#utility.yul\":6495:6501   */\n      dup3\n        /* \"#utility.yul\":6484:6493   */\n      dup12\n        /* \"#utility.yul\":6480:6502   */\n      add\n        /* \"#utility.yul\":6459:6512   */\n      tag_44\n      jump\t// in\n    tag_131:\n        /* \"#utility.yul\":6449:6512   */\n      swap5\n      pop\n        /* \"#utility.yul\":6404:6522   */\n      pop\n        /* \"#utility.yul\":6561:6564   */\n      0x80\n        /* \"#utility.yul\":6588:6641   */\n      tag_132\n        /* \"#utility.yul\":6633:6640   */\n      dup11\n        /* \"#utility.yul\":6624:6630   */\n      dup3\n        /* \"#utility.yul\":6613:6622   */\n      dup12\n        /* \"#utility.yul\":6609:6631   */\n      add\n        /* \"#utility.yul\":6588:6641   */\n      tag_44\n      jump\t// in\n    tag_132:\n        /* \"#utility.yul\":6578:6641   */\n      swap4\n      pop\n        /* \"#utility.yul\":6532:6651   */\n      pop\n        /* \"#utility.yul\":6718:6721   */\n      0xa0\n        /* \"#utility.yul\":6707:6716   */\n      dup9\n        /* \"#utility.yul\":6703:6722   */\n      add\n        /* \"#utility.yul\":6690:6723   */\n      calldataload\n        /* \"#utility.yul\":6750:6768   */\n      0xffffffffffffffff\n        /* \"#utility.yul\":6742:6748   */\n      dup2\n        /* \"#utility.yul\":6739:6769   */\n      gt\n        /* \"#utility.yul\":6736:6853   */\n      iszero\n      tag_133\n      jumpi\n        /* \"#utility.yul\":6772:6851   */\n      tag_134\n      tag_41\n      jump\t// in\n    tag_134:\n        /* \"#utility.yul\":6736:6853   */\n    tag_133:\n        /* \"#utility.yul\":6877:6940   */\n      tag_135\n        /* \"#utility.yul\":6932:6939   */\n      dup11\n        /* \"#utility.yul\":6923:6929   */\n      dup3\n        /* \"#utility.yul\":6912:6921   */\n      dup12\n        /* \"#utility.yul\":6908:6930   */\n      add\n        /* \"#utility.yul\":6877:6940   */\n      tag_59\n      jump\t// in\n    tag_135:\n        /* \"#utility.yul\":6867:6940   */\n      swap3\n      pop\n        /* \"#utility.yul\":6661:6950   */\n      pop\n        /* \"#utility.yul\":6989:6992   */\n      0xc0\n        /* \"#utility.yul\":7016:7069   */\n      tag_136\n        /* \"#utility.yul\":7061:7068   */\n      dup11\n        /* \"#utility.yul\":7052:7058   */\n      dup3\n        /* \"#utility.yul\":7041:7050   */\n      dup12\n        /* \"#utility.yul\":7037:7059   */\n      add\n        /* \"#utility.yul\":7016:7069   */\n      tag_44\n      jump\t// in\n    tag_136:\n        /* \"#utility.yul\":7006:7069   */\n      swap2\n      pop\n        /* \"#utility.yul\":6960:7079   */\n      pop\n        /* \"#utility.yul\":5343:7086   */\n      swap3\n      swap6\n      swap9\n      swap2\n      swap5\n      swap8\n      pop\n      swap3\n      swap6\n      pop\n      jump\t// out\n        /* \"#utility.yul\":7092:7182   */\n    tag_60:\n        /* \"#utility.yul\":7126:7133   */\n      0x00\n        /* \"#utility.yul\":7169:7174   */\n      dup2\n        /* \"#utility.yul\":7162:7175   */\n      iszero\n        /* \"#utility.yul\":7155:7176   */\n      iszero\n        /* \"#utility.yul\":7144:7176   */\n      swap1\n      pop\n        /* \"#utility.yul\":7092:7182   */\n      swap2\n      swap1\n      pop\n      jump\t// out\n        /* \"#utility.yul\":7188:7297   */\n    tag_61:\n        /* \"#utility.yul\":7269:7290   */\n      tag_139\n        /* \"#utility.yul\":7284:7289   */\n      dup2\n        /* \"#utility.yul\":7269:7290   */\n      tag_60\n      jump\t// in\n    tag_139:\n        /* \"#utility.yul\":7264:7267   */\n      dup3\n        /* \"#utility.yul\":7257:7291   */\n      mstore\n        /* \"#utility.yul\":7188:7297   */\n      pop\n      pop\n      jump\t// out\n        /* \"#utility.yul\":7303:7513   */\n    tag_17:\n        /* \"#utility.yul\":7390:7394   */\n      0x00\n        /* \"#utility.yul\":7428:7430   */\n      0x20\n        /* \"#utility.yul\":7417:7426   */\n      dup3\n        /* \"#utility.yul\":7413:7431   */\n      add\n        /* \"#utility.yul\":7405:7431   */\n      swap1\n      pop\n        /* \"#utility.yul\":7441:7506   */\n      tag_141\n        /* \"#utility.yul\":7503:7504   */\n      0x00\n        /* \"#utility.yul\":7492:7501   */\n      dup4\n        /* \"#utility.yul\":7488:7505   */\n      add\n        /* \"#utility.yul\":7479:7485   */\n      dup5\n        /* \"#utility.yul\":7441:7506   */\n      tag_61\n      jump\t// in\n    tag_141:\n        /* \"#utility.yul\":7303:7513   */\n      swap3\n      swap2\n      pop\n      pop\n      jump\t// out\n        /* \"#utility.yul\":7519:7741   */\n    tag_21:\n        /* \"#utility.yul\":7612:7616   */\n      0x00\n        /* \"#utility.yul\":7650:7652   */\n      0x20\n        /* \"#utility.yul\":7639:7648   */\n      dup3\n        /* \"#utility.yul\":7635:7653   */\n      add\n        /* \"#utility.yul\":7627:7653   */\n      swap1\n      pop\n        /* \"#utility.yul\":7663:7734   */\n      tag_143\n        /* \"#utility.yul\":7731:7732   */\n      0x00\n        /* \"#utility.yul\":7720:7729   */\n      dup4\n        /* \"#utility.yul\":7716:7733   */\n      add\n        /* \"#utility.yul\":7707:7713   */\n      dup5\n        /* \"#utility.yul\":7663:7734   */\n      tag_45\n      jump\t// in\n    tag_143:\n        /* \"#utility.yul\":7519:7741   */\n      swap3\n      swap2\n      pop\n      pop\n      jump\t// out\n        /* \"#utility.yul\":7747:7927   */\n    tag_62:\n        /* \"#utility.yul\":7795:7872   */\n      0x4e487b7100000000000000000000000000000000000000000000000000000000\n        /* \"#utility.yul\":7792:7793   */\n      0x00\n        /* \"#utility.yul\":7785:7873   */\n      mstore\n        /* \"#utility.yul\":7892:7896   */\n      0x22\n        /* \"#utility.yul\":7889:7890   */\n      0x04\n        /* \"#utility.yul\":7882:7897   */\n      mstore\n        /* \"#utility.yul\":7916:7920   */\n      0x24\n        /* \"#utility.yul\":7913:7914   */\n      0x00\n        /* \"#utility.yul\":7906:7921   */\n      revert\n        /* \"#utility.yul\":7933:8253   */\n    tag_23:\n        /* \"#utility.yul\":7977:7983   */\n      0x00\n        /* \"#utility.yul\":8014:8015   */\n      0x02\n        /* \"#utility.yul\":8008:8012   */\n      dup3\n        /* \"#utility.yul\":8004:8016   */\n      div\n        /* \"#utility.yul\":7994:8016   */\n      swap1\n      pop\n        /* \"#utility.yul\":8061:8062   */\n      0x01\n        /* \"#utility.yul\":8055:8059   */\n      dup3\n        /* \"#utility.yul\":8051:8063   */\n      and\n        /* \"#utility.yul\":8082:8100   */\n      dup1\n        /* \"#utility.yul\":8072:8153   */\n      tag_146\n      jumpi\n        /* \"#utility.yul\":8138:8142   */\n      0x7f\n        /* \"#utility.yul\":8130:8136   */\n      dup3\n        /* \"#utility.yul\":8126:8143   */\n      and\n        /* \"#utility.yul\":8116:8143   */\n      swap2\n      pop\n        /* \"#utility.yul\":8072:8153   */\n    tag_146:\n        /* \"#utility.yul\":8200:8202   */\n      0x20\n        /* \"#utility.yul\":8192:8198   */\n      dup3\n        /* \"#utility.yul\":8189:8203   */\n      lt\n        /* \"#utility.yul\":8169:8187   */\n      dup2\n        /* \"#utility.yul\":8166:8204   */\n      sub\n        /* \"#utility.yul\":8163:8247   */\n      tag_147\n      jumpi\n        /* \"#utility.yul\":8219:8237   */\n      tag_148\n      tag_62\n      jump\t// in\n    tag_148:\n        /* \"#utility.yul\":8163:8247   */\n    tag_147:\n        /* \"#utility.yul\":7984:8253   */\n      pop\n        /* \"#utility.yul\":7933:8253   */\n      swap2\n      swap1\n      pop\n      jump\t// out\n\n    auxdata: 0xa2646970667358221220a3017a88cdb98bdf4af7ffce9bddac7f12c04ba95784f048d939f285d6fd552964736f6c634300081a0033\n}\n",
				"bytecode": {
					"linkReferences": {},
					"object": "60806040525f6001553480156012575f80fd5b50610714806100205f395ff3fe608060405234801561000f575f80fd5b506004361061003f575f3560e01c80634013be101461004357806381b128cb14610079578063fd39911b146100a9575b5f80fd5b61005d600480360381019061005891906102ec565b6100c7565b6040516100709796959493929190610396565b60405180910390f35b610093600480360381019061008e9190610544565b610296565b6040516100a0919061064f565b60405180910390f35b6100b16102a2565b6040516100be9190610668565b60405180910390f35b5f602052805f5260405f205f91509050805f0154908060010180546100eb906106ae565b80601f0160208091040260200160405190810160405280929190818152602001828054610117906106ae565b80156101625780601f1061013957610100808354040283529160200191610162565b820191905f5260205f20905b81548152906001019060200180831161014557829003601f168201915b505050505090806002018054610177906106ae565b80601f01602080910402602001604051908101604052809291908181526020018280546101a3906106ae565b80156101ee5780601f106101c5576101008083540402835291602001916101ee565b820191905f5260205f20905b8154815290600101906020018083116101d157829003601f168201915b50505050509080600301549080600401549080600501805461020f906106ae565b80601f016020809104026020016040519081016040528092919081815260200182805461023b906106ae565b80156102865780601f1061025d57610100808354040283529160200191610286565b820191905f5260205f20905b81548152906001019060200180831161026957829003601f168201915b5050505050908060060154905087565b5f979650505050505050565b60015481565b5f604051905090565b5f80fd5b5f80fd5b5f819050919050565b6102cb816102b9565b81146102d5575f80fd5b50565b5f813590506102e6816102c2565b92915050565b5f60208284031215610301576103006102b1565b5b5f61030e848285016102d8565b91505092915050565b610320816102b9565b82525050565b5f81519050919050565b5f82825260208201905092915050565b8281835e5f83830152505050565b5f601f19601f8301169050919050565b5f61036882610326565b6103728185610330565b9350610382818560208601610340565b61038b8161034e565b840191505092915050565b5f60e0820190506103a95f83018a610317565b81810360208301526103bb818961035e565b905081810360408301526103cf818861035e565b90506103de6060830187610317565b6103eb6080830186610317565b81810360a08301526103fd818561035e565b905061040c60c0830184610317565b98975050505050505050565b5f80fd5b5f80fd5b7f4e487b71000000000000000000000000000000000000000000000000000000005f52604160045260245ffd5b6104568261034e565b810181811067ffffffffffffffff8211171561047557610474610420565b5b80604052505050565b5f6104876102a8565b9050610493828261044d565b919050565b5f67ffffffffffffffff8211156104b2576104b1610420565b5b6104bb8261034e565b9050602081019050919050565b828183375f83830152505050565b5f6104e86104e384610498565b61047e565b9050828152602081018484840111156105045761050361041c565b5b61050f8482856104c8565b509392505050565b5f82601f83011261052b5761052a610418565b5b813561053b8482602086016104d6565b91505092915050565b5f805f805f805f60e0888a03121561055f5761055e6102b1565b5b5f61056c8a828b016102d8565b975050602088013567ffffffffffffffff81111561058d5761058c6102b5565b5b6105998a828b01610517565b965050604088013567ffffffffffffffff8111156105ba576105b96102b5565b5b6105c68a828b01610517565b95505060606105d78a828b016102d8565b94505060806105e88a828b016102d8565b93505060a088013567ffffffffffffffff811115610609576106086102b5565b5b6106158a828b01610517565b92505060c06106268a828b016102d8565b91505092959891949750929550565b5f8115159050919050565b61064981610635565b82525050565b5f6020820190506106625f830184610640565b92915050565b5f60208201905061067b5f830184610317565b92915050565b7f4e487b71000000000000000000000000000000000000000000000000000000005f52602260045260245ffd5b5f60028204905060018216806106c557607f821691505b6020821081036106d8576106d7610681565b5b5091905056fea2646970667358221220a3017a88cdb98bdf4af7ffce9bddac7f12c04ba95784f048d939f285d6fd552964736f6c634300081a0033",
					"opcodes": "PUSH1 0x80 PUSH1 0x40 MSTORE PUSH0 PUSH1 0x1 SSTORE CALLVALUE DUP1 ISZERO PUSH1 0x12 JUMPI PUSH0 DUP1 REVERT JUMPDEST POP PUSH2 0x714 DUP1 PUSH2 0x20 PUSH0 CODECOPY PUSH0 RETURN INVALID PUSH1 0x80 PUSH1 0x40 MSTORE CALLVALUE DUP1 ISZERO PUSH2 0xF JUMPI PUSH0 DUP1 REVERT JUMPDEST POP PUSH1 0x4 CALLDATASIZE LT PUSH2 0x3F JUMPI PUSH0 CALLDATALOAD PUSH1 0xE0 SHR DUP1 PUSH4 0x4013BE10 EQ PUSH2 0x43 JUMPI DUP1 PUSH4 0x81B128CB EQ PUSH2 0x79 JUMPI DUP1 PUSH4 0xFD39911B EQ PUSH2 0xA9 JUMPI JUMPDEST PUSH0 DUP1 REVERT JUMPDEST PUSH2 0x5D PUSH1 0x4 DUP1 CALLDATASIZE SUB DUP2 ADD SWAP1 PUSH2 0x58 SWAP2 SWAP1 PUSH2 0x2EC JUMP JUMPDEST PUSH2 0xC7 JUMP JUMPDEST PUSH1 0x40 MLOAD PUSH2 0x70 SWAP8 SWAP7 SWAP6 SWAP5 SWAP4 SWAP3 SWAP2 SWAP1 PUSH2 0x396 JUMP JUMPDEST PUSH1 0x40 MLOAD DUP1 SWAP2 SUB SWAP1 RETURN JUMPDEST PUSH2 0x93 PUSH1 0x4 DUP1 CALLDATASIZE SUB DUP2 ADD SWAP1 PUSH2 0x8E SWAP2 SWAP1 PUSH2 0x544 JUMP JUMPDEST PUSH2 0x296 JUMP JUMPDEST PUSH1 0x40 MLOAD PUSH2 0xA0 SWAP2 SWAP1 PUSH2 0x64F JUMP JUMPDEST PUSH1 0x40 MLOAD DUP1 SWAP2 SUB SWAP1 RETURN JUMPDEST PUSH2 0xB1 PUSH2 0x2A2 JUMP JUMPDEST PUSH1 0x40 MLOAD PUSH2 0xBE SWAP2 SWAP1 PUSH2 0x668 JUMP JUMPDEST PUSH1 0x40 MLOAD DUP1 SWAP2 SUB SWAP1 RETURN JUMPDEST PUSH0 PUSH1 0x20 MSTORE DUP1 PUSH0 MSTORE PUSH1 0x40 PUSH0 KECCAK256 PUSH0 SWAP2 POP SWAP1 POP DUP1 PUSH0 ADD SLOAD SWAP1 DUP1 PUSH1 0x1 ADD DUP1 SLOAD PUSH2 0xEB SWAP1 PUSH2 0x6AE JUMP JUMPDEST DUP1 PUSH1 0x1F ADD PUSH1 0x20 DUP1 SWAP2 DIV MUL PUSH1 0x20 ADD PUSH1 0x40 MLOAD SWAP1 DUP2 ADD PUSH1 0x40 MSTORE DUP1 SWAP3 SWAP2 SWAP1 DUP2 DUP2 MSTORE PUSH1 0x20 ADD DUP3 DUP1 SLOAD PUSH2 0x117 SWAP1 PUSH2 0x6AE JUMP JUMPDEST DUP1 ISZERO PUSH2 0x162 JUMPI DUP1 PUSH1 0x1F LT PUSH2 0x139 JUMPI PUSH2 0x100 DUP1 DUP4 SLOAD DIV MUL DUP4 MSTORE SWAP2 PUSH1 0x20 ADD SWAP2 PUSH2 0x162 JUMP JUMPDEST DUP3 ADD SWAP2 SWAP1 PUSH0 MSTORE PUSH1 0x20 PUSH0 KECCAK256 SWAP1 JUMPDEST DUP2 SLOAD DUP2 MSTORE SWAP1 PUSH1 0x1 ADD SWAP1 PUSH1 0x20 ADD DUP1 DUP4 GT PUSH2 0x145 JUMPI DUP3 SWAP1 SUB PUSH1 0x1F AND DUP3 ADD SWAP2 JUMPDEST POP POP POP POP POP SWAP1 DUP1 PUSH1 0x2 ADD DUP1 SLOAD PUSH2 0x177 SWAP1 PUSH2 0x6AE JUMP JUMPDEST DUP1 PUSH1 0x1F ADD PUSH1 0x20 DUP1 SWAP2 DIV MUL PUSH1 0x20 ADD PUSH1 0x40 MLOAD SWAP1 DUP2 ADD PUSH1 0x40 MSTORE DUP1 SWAP3 SWAP2 SWAP1 DUP2 DUP2 MSTORE PUSH1 0x20 ADD DUP3 DUP1 SLOAD PUSH2 0x1A3 SWAP1 PUSH2 0x6AE JUMP JUMPDEST DUP1 ISZERO PUSH2 0x1EE JUMPI DUP1 PUSH1 0x1F LT PUSH2 0x1C5 JUMPI PUSH2 0x100 DUP1 DUP4 SLOAD DIV MUL DUP4 MSTORE SWAP2 PUSH1 0x20 ADD SWAP2 PUSH2 0x1EE JUMP JUMPDEST DUP3 ADD SWAP2 SWAP1 PUSH0 MSTORE PUSH1 0x20 PUSH0 KECCAK256 SWAP1 JUMPDEST DUP2 SLOAD DUP2 MSTORE SWAP1 PUSH1 0x1 ADD SWAP1 PUSH1 0x20 ADD DUP1 DUP4 GT PUSH2 0x1D1 JUMPI DUP3 SWAP1 SUB PUSH1 0x1F AND DUP3 ADD SWAP2 JUMPDEST POP POP POP POP POP SWAP1 DUP1 PUSH1 0x3 ADD SLOAD SWAP1 DUP1 PUSH1 0x4 ADD SLOAD SWAP1 DUP1 PUSH1 0x5 ADD DUP1 SLOAD PUSH2 0x20F SWAP1 PUSH2 0x6AE JUMP JUMPDEST DUP1 PUSH1 0x1F ADD PUSH1 0x20 DUP1 SWAP2 DIV MUL PUSH1 0x20 ADD PUSH1 0x40 MLOAD SWAP1 DUP2 ADD PUSH1 0x40 MSTORE DUP1 SWAP3 SWAP2 SWAP1 DUP2 DUP2 MSTORE PUSH1 0x20 ADD DUP3 DUP1 SLOAD PUSH2 0x23B SWAP1 PUSH2 0x6AE JUMP JUMPDEST DUP1 ISZERO PUSH2 0x286 JUMPI DUP1 PUSH1 0x1F LT PUSH2 0x25D JUMPI PUSH2 0x100 DUP1 DUP4 SLOAD DIV MUL DUP4 MSTORE SWAP2 PUSH1 0x20 ADD SWAP2 PUSH2 0x286 JUMP JUMPDEST DUP3 ADD SWAP2 SWAP1 PUSH0 MSTORE PUSH1 0x20 PUSH0 KECCAK256 SWAP1 JUMPDEST DUP2 SLOAD DUP2 MSTORE SWAP1 PUSH1 0x1 ADD SWAP1 PUSH1 0x20 ADD DUP1 DUP4 GT PUSH2 0x269 JUMPI DUP3 SWAP1 SUB PUSH1 0x1F AND DUP3 ADD SWAP2 JUMPDEST POP POP POP POP POP SWAP1 DUP1 PUSH1 0x6 ADD SLOAD SWAP1 POP DUP8 JUMP JUMPDEST PUSH0 SWAP8 SWAP7 POP POP POP POP POP POP POP JUMP JUMPDEST PUSH1 0x1 SLOAD DUP2 JUMP JUMPDEST PUSH0 PUSH1 0x40 MLOAD SWAP1 POP SWAP1 JUMP JUMPDEST PUSH0 DUP1 REVERT JUMPDEST PUSH0 DUP1 REVERT JUMPDEST PUSH0 DUP2 SWAP1 POP SWAP2 SWAP1 POP JUMP JUMPDEST PUSH2 0x2CB DUP2 PUSH2 0x2B9 JUMP JUMPDEST DUP2 EQ PUSH2 0x2D5 JUMPI PUSH0 DUP1 REVERT JUMPDEST POP JUMP JUMPDEST PUSH0 DUP2 CALLDATALOAD SWAP1 POP PUSH2 0x2E6 DUP2 PUSH2 0x2C2 JUMP JUMPDEST SWAP3 SWAP2 POP POP JUMP JUMPDEST PUSH0 PUSH1 0x20 DUP3 DUP5 SUB SLT ISZERO PUSH2 0x301 JUMPI PUSH2 0x300 PUSH2 0x2B1 JUMP JUMPDEST JUMPDEST PUSH0 PUSH2 0x30E DUP5 DUP3 DUP6 ADD PUSH2 0x2D8 JUMP JUMPDEST SWAP2 POP POP SWAP3 SWAP2 POP POP JUMP JUMPDEST PUSH2 0x320 DUP2 PUSH2 0x2B9 JUMP JUMPDEST DUP3 MSTORE POP POP JUMP JUMPDEST PUSH0 DUP2 MLOAD SWAP1 POP SWAP2 SWAP1 POP JUMP JUMPDEST PUSH0 DUP3 DUP3 MSTORE PUSH1 0x20 DUP3 ADD SWAP1 POP SWAP3 SWAP2 POP POP JUMP JUMPDEST DUP3 DUP2 DUP4 MCOPY PUSH0 DUP4 DUP4 ADD MSTORE POP POP POP JUMP JUMPDEST PUSH0 PUSH1 0x1F NOT PUSH1 0x1F DUP4 ADD AND SWAP1 POP SWAP2 SWAP1 POP JUMP JUMPDEST PUSH0 PUSH2 0x368 DUP3 PUSH2 0x326 JUMP JUMPDEST PUSH2 0x372 DUP2 DUP6 PUSH2 0x330 JUMP JUMPDEST SWAP4 POP PUSH2 0x382 DUP2 DUP6 PUSH1 0x20 DUP7 ADD PUSH2 0x340 JUMP JUMPDEST PUSH2 0x38B DUP2 PUSH2 0x34E JUMP JUMPDEST DUP5 ADD SWAP2 POP POP SWAP3 SWAP2 POP POP JUMP JUMPDEST PUSH0 PUSH1 0xE0 DUP3 ADD SWAP1 POP PUSH2 0x3A9 PUSH0 DUP4 ADD DUP11 PUSH2 0x317 JUMP JUMPDEST DUP2 DUP2 SUB PUSH1 0x20 DUP4 ADD MSTORE PUSH2 0x3BB DUP2 DUP10 PUSH2 0x35E JUMP JUMPDEST SWAP1 POP DUP2 DUP2 SUB PUSH1 0x40 DUP4 ADD MSTORE PUSH2 0x3CF DUP2 DUP9 PUSH2 0x35E JUMP JUMPDEST SWAP1 POP PUSH2 0x3DE PUSH1 0x60 DUP4 ADD DUP8 PUSH2 0x317 JUMP JUMPDEST PUSH2 0x3EB PUSH1 0x80 DUP4 ADD DUP7 PUSH2 0x317 JUMP JUMPDEST DUP2 DUP2 SUB PUSH1 0xA0 DUP4 ADD MSTORE PUSH2 0x3FD DUP2 DUP6 PUSH2 0x35E JUMP JUMPDEST SWAP1 POP PUSH2 0x40C PUSH1 0xC0 DUP4 ADD DUP5 PUSH2 0x317 JUMP JUMPDEST SWAP9 SWAP8 POP POP POP POP POP POP POP POP JUMP JUMPDEST PUSH0 DUP1 REVERT JUMPDEST PUSH0 DUP1 REVERT JUMPDEST PUSH32 0x4E487B7100000000000000000000000000000000000000000000000000000000 PUSH0 MSTORE PUSH1 0x41 PUSH1 0x4 MSTORE PUSH1 0x24 PUSH0 REVERT JUMPDEST PUSH2 0x456 DUP3 PUSH2 0x34E JUMP JUMPDEST DUP2 ADD DUP2 DUP2 LT PUSH8 0xFFFFFFFFFFFFFFFF DUP3 GT OR ISZERO PUSH2 0x475 JUMPI PUSH2 0x474 PUSH2 0x420 JUMP JUMPDEST JUMPDEST DUP1 PUSH1 0x40 MSTORE POP POP POP JUMP JUMPDEST PUSH0 PUSH2 0x487 PUSH2 0x2A8 JUMP JUMPDEST SWAP1 POP PUSH2 0x493 DUP3 DUP3 PUSH2 0x44D JUMP JUMPDEST SWAP2 SWAP1 POP JUMP JUMPDEST PUSH0 PUSH8 0xFFFFFFFFFFFFFFFF DUP3 GT ISZERO PUSH2 0x4B2 JUMPI PUSH2 0x4B1 PUSH2 0x420 JUMP JUMPDEST JUMPDEST PUSH2 0x4BB DUP3 PUSH2 0x34E JUMP JUMPDEST SWAP1 POP PUSH1 0x20 DUP2 ADD SWAP1 POP SWAP2 SWAP1 POP JUMP JUMPDEST DUP3 DUP2 DUP4 CALLDATACOPY PUSH0 DUP4 DUP4 ADD MSTORE POP POP POP JUMP JUMPDEST PUSH0 PUSH2 0x4E8 PUSH2 0x4E3 DUP5 PUSH2 0x498 JUMP JUMPDEST PUSH2 0x47E JUMP JUMPDEST SWAP1 POP DUP3 DUP2 MSTORE PUSH1 0x20 DUP2 ADD DUP5 DUP5 DUP5 ADD GT ISZERO PUSH2 0x504 JUMPI PUSH2 0x503 PUSH2 0x41C JUMP JUMPDEST JUMPDEST PUSH2 0x50F DUP5 DUP3 DUP6 PUSH2 0x4C8 JUMP JUMPDEST POP SWAP4 SWAP3 POP POP POP JUMP JUMPDEST PUSH0 DUP3 PUSH1 0x1F DUP4 ADD SLT PUSH2 0x52B JUMPI PUSH2 0x52A PUSH2 0x418 JUMP JUMPDEST JUMPDEST DUP2 CALLDATALOAD PUSH2 0x53B DUP5 DUP3 PUSH1 0x20 DUP7 ADD PUSH2 0x4D6 JUMP JUMPDEST SWAP2 POP POP SWAP3 SWAP2 POP POP JUMP JUMPDEST PUSH0 DUP1 PUSH0 DUP1 PUSH0 DUP1 PUSH0 PUSH1 0xE0 DUP9 DUP11 SUB SLT ISZERO PUSH2 0x55F JUMPI PUSH2 0x55E PUSH2 0x2B1 JUMP JUMPDEST JUMPDEST PUSH0 PUSH2 0x56C DUP11 DUP3 DUP12 ADD PUSH2 0x2D8 JUMP JUMPDEST SWAP8 POP POP PUSH1 0x20 DUP9 ADD CALLDATALOAD PUSH8 0xFFFFFFFFFFFFFFFF DUP2 GT ISZERO PUSH2 0x58D JUMPI PUSH2 0x58C PUSH2 0x2B5 JUMP JUMPDEST JUMPDEST PUSH2 0x599 DUP11 DUP3 DUP12 ADD PUSH2 0x517 JUMP JUMPDEST SWAP7 POP POP PUSH1 0x40 DUP9 ADD CALLDATALOAD PUSH8 0xFFFFFFFFFFFFFFFF DUP2 GT ISZERO PUSH2 0x5BA JUMPI PUSH2 0x5B9 PUSH2 0x2B5 JUMP JUMPDEST JUMPDEST PUSH2 0x5C6 DUP11 DUP3 DUP12 ADD PUSH2 0x517 JUMP JUMPDEST SWAP6 POP POP PUSH1 0x60 PUSH2 0x5D7 DUP11 DUP3 DUP12 ADD PUSH2 0x2D8 JUMP JUMPDEST SWAP5 POP POP PUSH1 0x80 PUSH2 0x5E8 DUP11 DUP3 DUP12 ADD PUSH2 0x2D8 JUMP JUMPDEST SWAP4 POP POP PUSH1 0xA0 DUP9 ADD CALLDATALOAD PUSH8 0xFFFFFFFFFFFFFFFF DUP2 GT ISZERO PUSH2 0x609 JUMPI PUSH2 0x608 PUSH2 0x2B5 JUMP JUMPDEST JUMPDEST PUSH2 0x615 DUP11 DUP3 DUP12 ADD PUSH2 0x517 JUMP JUMPDEST SWAP3 POP POP PUSH1 0xC0 PUSH2 0x626 DUP11 DUP3 DUP12 ADD PUSH2 0x2D8 JUMP JUMPDEST SWAP2 POP POP SWAP3 SWAP6 SWAP9 SWAP2 SWAP5 SWAP8 POP SWAP3 SWAP6 POP JUMP JUMPDEST PUSH0 DUP2 ISZERO ISZERO SWAP1 POP SWAP2 SWAP1 POP JUMP JUMPDEST PUSH2 0x649 DUP2 PUSH2 0x635 JUMP JUMPDEST DUP3 MSTORE POP POP JUMP JUMPDEST PUSH0 PUSH1 0x20 DUP3 ADD SWAP1 POP PUSH2 0x662 PUSH0 DUP4 ADD DUP5 PUSH2 0x640 JUMP JUMPDEST SWAP3 SWAP2 POP POP JUMP JUMPDEST PUSH0 PUSH1 0x20 DUP3 ADD SWAP1 POP PUSH2 0x67B PUSH0 DUP4 ADD DUP5 PUSH2 0x317 JUMP JUMPDEST SWAP3 SWAP2 POP POP JUMP JUMPDEST PUSH32 0x4E487B7100000000000000000000000000000000000000000000000000000000 PUSH0 MSTORE PUSH1 0x22 PUSH1 0x4 MSTORE PUSH1 0x24 PUSH0 REVERT JUMPDEST PUSH0 PUSH1 0x2 DUP3 DIV SWAP1 POP PUSH1 0x1 DUP3 AND DUP1 PUSH2 0x6C5 JUMPI PUSH1 0x7F DUP3 AND SWAP2 POP JUMPDEST PUSH1 0x20 DUP3 LT DUP2 SUB PUSH2 0x6D8 JUMPI PUSH2 0x6D7 PUSH2 0x681 JUMP JUMPDEST JUMPDEST POP SWAP2 SWAP1 POP JUMP INVALID LOG2 PUSH5 0x6970667358 0x22 SLT KECCAK256 LOG3 ADD PUSH27 0x88CDB98BDF4AF7FFCE9BDDAC7F12C04BA95784F048D939F285D6FD SSTORE 0x29 PUSH5 0x736F6C6343 STOP ADDMOD BYTE STOP CALLER "
				},
				"gasEstimates": {
					"creation": {
						"codeDepositCost": "362400",
						"executionCost": "5402",
						"totalCost": "367802"
					},
					"external": {
						"Campaigns(uint256)": "infinite",
						"createCampaign(uint256,string,string,uint256,uint256,string,uint256)": "infinite",
						"numOfListCampaign()": "2447"
					}
				},
				"methodIdentifiers": {
					"Campaigns(uint256)": "4013be10",
					"createCampaign(uint256,string,string,uint256,uint256,string,uint256)": "81b128cb",
					"numOfListCampaign()": "fd39911b"
				}
			},
			"storageLayout": {
				"storage": [
					{
						"astId": 21,
						"contract": "organization.sol:organization",
						"label": "Campaigns",
						"offset": 0,
						"slot": "0",
						"type": "t_mapping(t_uint256,t_struct(Campaign)16_storage)"
					},
					{
						"astId": 24,
						"contract": "organization.sol:organization",
						"label": "numOfListCampaign",
						"offset": 0,
						"slot": "1",
						"type": "t_uint256"
					}
				],
				"types": {
					"t_mapping(t_uint256,t_struct(Campaign)16_storage)": {
						"encoding": "mapping",
						"key": "t_uint256",
						"label": "mapping(uint256 => struct organization.Campaign)",
						"numberOfBytes": "32",
						"value": "t_struct(Campaign)16_storage"
					},
					"t_string_storage": {
						"encoding": "bytes",
						"label": "string",
						"numberOfBytes": "32"
					},
					"t_struct(Campaign)16_storage": {
						"encoding": "inplace",
						"label": "struct organization.Campaign",
						"members": [
							{
								"astId": 3,
								"contract": "organization.sol:organization",
								"label": "owner",
								"offset": 0,
								"slot": "0",
								"type": "t_uint256"
							},
							{
								"astId": 5,
								"contract": "organization.sol:organization",
								"label": "name",
								"offset": 0,
								"slot": "1",
								"type": "t_string_storage"
							},
							{
								"astId": 7,
								"contract": "organization.sol:organization",
								"label": "description",
								"offset": 0,
								"slot": "2",
								"type": "t_string_storage"
							},
							{
								"astId": 9,
								"contract": "organization.sol:organization",
								"label": "fund_required",
								"offset": 0,
								"slot": "3",
								"type": "t_uint256"
							},
							{
								"astId": 11,
								"contract": "organization.sol:organization",
								"label": "recive_amount",
								"offset": 0,
								"slot": "4",
								"type": "t_uint256"
							},
							{
								"astId": 13,
								"contract": "organization.sol:organization",
								"label": "image",
								"offset": 0,
								"slot": "5",
								"type": "t_string_storage"
							},
							{
								"astId": 15,
								"contract": "organization.sol:organization",
								"label": "deadLine",
								"offset": 0,
								"slot": "6",
								"type": "t_uint256"
							}
						],
						"numberOfBytes": "224"
					},
					"t_uint256": {
						"encoding": "inplace",
						"label": "uint256",
						"numberOfBytes": "32"
					}
				}
			},
			"userdoc": {
				"kind": "user",
				"methods": {},
				"version": 1
			}
		}
	}
}