{
	"data": {
		"bytecode": {
			"linkReferences": {},
			"object": "60806040525f6001553480156012575f80fd5b50610deb806100205f395ff3fe608060405234801561000f575f80fd5b506004361061003f575f3560e01c80634013be1014610043578063fd39911b14610079578063fe91349d14610097575b5f80fd5b61005d600480360381019061005891906104e8565b6100c7565b60405161007097969594939291906105d1565b60405180910390f35b6100816102b5565b60405161008e9190610653565b60405180910390f35b6100b160048036038101906100ac91906107c2565b6102bb565b6040516100be91906108cd565b60405180910390f35b5f602052805f5260405f205f91509050805f015f9054906101000a900473ffffffffffffffffffffffffffffffffffffffff169080600101805461010a90610913565b80601f016020809104026020016040519081016040528092919081815260200182805461013690610913565b80156101815780601f1061015857610100808354040283529160200191610181565b820191905f5260205f20905b81548152906001019060200180831161016457829003601f168201915b50505050509080600201805461019690610913565b80601f01602080910402602001604051908101604052809291908181526020018280546101c290610913565b801561020d5780601f106101e45761010080835404028352916020019161020d565b820191905f5260205f20905b8154815290600101906020018083116101f057829003601f168201915b50505050509080600301549080600401549080600501805461022e90610913565b80601f016020809104026020016040519081016040528092919081815260200182805461025a90610913565b80156102a55780601f1061027c576101008083540402835291602001916102a5565b820191905f5260205f20905b81548152906001019060200180831161028857829003601f168201915b5050505050908060060154905087565b60015481565b5f8085116102fe576040517f08c379a00000000000000000000000000000000000000000000000000000000081526004016102f5906109b3565b60405180910390fd5b428211610340576040517f08c379a000000000000000000000000000000000000000000000000000000000815260040161033790610a41565b60405180910390fd5b5f6040518060e001604052808a73ffffffffffffffffffffffffffffffffffffffff168152602001898152602001888152602001878152602001868152602001858152602001848152509050805f8060015481526020019081526020015f205f820151815f015f6101000a81548173ffffffffffffffffffffffffffffffffffffffff021916908373ffffffffffffffffffffffffffffffffffffffff16021790555060208201518160010190816103f89190610bfc565b50604082015181600201908161040e9190610bfc565b50606082015181600301556080820151816004015560a08201518160050190816104389190610bfc565b5060c0820151816006015590505060015f81548092919061045890610cf8565b91905055507fc84d18f7184f599c83431ba680257b738c98ed521caf037e0c7443264fc69d098960405161048c9190610d89565b60405180910390a16001915050979650505050505050565b5f604051905090565b5f80fd5b5f80fd5b5f819050919050565b6104c7816104b5565b81146104d1575f80fd5b50565b5f813590506104e2816104be565b92915050565b5f602082840312156104fd576104fc6104ad565b5b5f61050a848285016104d4565b91505092915050565b5f73ffffffffffffffffffffffffffffffffffffffff82169050919050565b5f61053c82610513565b9050919050565b61054c81610532565b82525050565b5f81519050919050565b5f82825260208201905092915050565b8281835e5f83830152505050565b5f601f19601f8301169050919050565b5f61059482610552565b61059e818561055c565b93506105ae81856020860161056c565b6105b78161057a565b840191505092915050565b6105cb816104b5565b82525050565b5f60e0820190506105e45f83018a610543565b81810360208301526105f6818961058a565b9050818103604083015261060a818861058a565b905061061960608301876105c2565b61062660808301866105c2565b81810360a0830152610638818561058a565b905061064760c08301846105c2565b98975050505050505050565b5f6020820190506106665f8301846105c2565b92915050565b61067581610532565b811461067f575f80fd5b50565b5f813590506106908161066c565b92915050565b5f80fd5b5f80fd5b7f4e487b71000000000000000000000000000000000000000000000000000000005f52604160045260245ffd5b6106d48261057a565b810181811067ffffffffffffffff821117156106f3576106f261069e565b5b80604052505050565b5f6107056104a4565b905061071182826106cb565b919050565b5f67ffffffffffffffff8211156107305761072f61069e565b5b6107398261057a565b9050602081019050919050565b828183375f83830152505050565b5f61076661076184610716565b6106fc565b9050828152602081018484840111156107825761078161069a565b5b61078d848285610746565b509392505050565b5f82601f8301126107a9576107a8610696565b5b81356107b9848260208601610754565b91505092915050565b5f805f805f805f60e0888a0312156107dd576107dc6104ad565b5b5f6107ea8a828b01610682565b975050602088013567ffffffffffffffff81111561080b5761080a6104b1565b5b6108178a828b01610795565b965050604088013567ffffffffffffffff811115610838576108376104b1565b5b6108448a828b01610795565b95505060606108558a828b016104d4565b94505060806108668a828b016104d4565b93505060a088013567ffffffffffffffff811115610887576108866104b1565b5b6108938a828b01610795565b92505060c06108a48a828b016104d4565b91505092959891949750929550565b5f8115159050919050565b6108c7816108b3565b82525050565b5f6020820190506108e05f8301846108be565b92915050565b7f4e487b71000000000000000000000000000000000000000000000000000000005f52602260045260245ffd5b5f600282049050600182168061092a57607f821691505b60208210810361093d5761093c6108e6565b5b50919050565b7f46756e64207265717569726564206d75737420626520677265617465722074685f8201527f616e203000000000000000000000000000000000000000000000000000000000602082015250565b5f61099d60248361055c565b91506109a882610943565b604082019050919050565b5f6020820190508181035f8301526109ca81610991565b9050919050565b7f446561646c696e65206d7573742062652061667465722063757272656e7420745f8201527f696d650000000000000000000000000000000000000000000000000000000000602082015250565b5f610a2b60238361055c565b9150610a36826109d1565b604082019050919050565b5f6020820190508181035f830152610a5881610a1f565b9050919050565b5f819050815f5260205f209050919050565b5f6020601f8301049050919050565b5f82821b905092915050565b5f60088302610abb7fffffffffffffffffffffffffffffffffffffffffffffffffffffffffffffffff82610a80565b610ac58683610a80565b95508019841693508086168417925050509392505050565b5f819050919050565b5f610b00610afb610af6846104b5565b610add565b6104b5565b9050919050565b5f819050919050565b610b1983610ae6565b610b2d610b2582610b07565b848454610a8c565b825550505050565b5f90565b610b41610b35565b610b4c818484610b10565b505050565b5b81811015610b6f57610b645f82610b39565b600181019050610b52565b5050565b601f821115610bb457610b8581610a5f565b610b8e84610a71565b81016020851015610b9d578190505b610bb1610ba985610a71565b830182610b51565b50505b505050565b5f82821c905092915050565b5f610bd45f1984600802610bb9565b1980831691505092915050565b5f610bec8383610bc5565b9150826002028217905092915050565b610c0582610552565b67ffffffffffffffff811115610c1e57610c1d61069e565b5b610c288254610913565b610c33828285610b73565b5f60209050601f831160018114610c64575f8415610c52578287015190505b610c5c8582610be1565b865550610cc3565b601f198416610c7286610a5f565b5f5b82811015610c9957848901518255600182019150602085019450602081019050610c74565b86831015610cb65784890151610cb2601f891682610bc5565b8355505b6001600288020188555050505b505050505050565b7f4e487b71000000000000000000000000000000000000000000000000000000005f52601160045260245ffd5b5f610d02826104b5565b91507fffffffffffffffffffffffffffffffffffffffffffffffffffffffffffffffff8203610d3457610d33610ccb565b5b600182019050919050565b7f43616d706169676e20437265617465205375636365737366756c6c79000000005f82015250565b5f610d73601c8361055c565b9150610d7e82610d3f565b602082019050919050565b5f6040820190508181035f830152610da081610d67565b9050610daf6020830184610543565b9291505056fea2646970667358221220e9f79a05013b4a9af79010add5b66a251bf68cd6ca4ea7a942e9671f689b5a2564736f6c634300081a0033",
			"opcodes": "PUSH1 0x80 PUSH1 0x40 MSTORE PUSH0 PUSH1 0x1 SSTORE CALLVALUE DUP1 ISZERO PUSH1 0x12 JUMPI PUSH0 DUP1 REVERT JUMPDEST POP PUSH2 0xDEB DUP1 PUSH2 0x20 PUSH0 CODECOPY PUSH0 RETURN INVALID PUSH1 0x80 PUSH1 0x40 MSTORE CALLVALUE DUP1 ISZERO PUSH2 0xF JUMPI PUSH0 DUP1 REVERT JUMPDEST POP PUSH1 0x4 CALLDATASIZE LT PUSH2 0x3F JUMPI PUSH0 CALLDATALOAD PUSH1 0xE0 SHR DUP1 PUSH4 0x4013BE10 EQ PUSH2 0x43 JUMPI DUP1 PUSH4 0xFD39911B EQ PUSH2 0x79 JUMPI DUP1 PUSH4 0xFE91349D EQ PUSH2 0x97 JUMPI JUMPDEST PUSH0 DUP1 REVERT JUMPDEST PUSH2 0x5D PUSH1 0x4 DUP1 CALLDATASIZE SUB DUP2 ADD SWAP1 PUSH2 0x58 SWAP2 SWAP1 PUSH2 0x4E8 JUMP JUMPDEST PUSH2 0xC7 JUMP JUMPDEST PUSH1 0x40 MLOAD PUSH2 0x70 SWAP8 SWAP7 SWAP6 SWAP5 SWAP4 SWAP3 SWAP2 SWAP1 PUSH2 0x5D1 JUMP JUMPDEST PUSH1 0x40 MLOAD DUP1 SWAP2 SUB SWAP1 RETURN JUMPDEST PUSH2 0x81 PUSH2 0x2B5 JUMP JUMPDEST PUSH1 0x40 MLOAD PUSH2 0x8E SWAP2 SWAP1 PUSH2 0x653 JUMP JUMPDEST PUSH1 0x40 MLOAD DUP1 SWAP2 SUB SWAP1 RETURN JUMPDEST PUSH2 0xB1 PUSH1 0x4 DUP1 CALLDATASIZE SUB DUP2 ADD SWAP1 PUSH2 0xAC SWAP2 SWAP1 PUSH2 0x7C2 JUMP JUMPDEST PUSH2 0x2BB JUMP JUMPDEST PUSH1 0x40 MLOAD PUSH2 0xBE SWAP2 SWAP1 PUSH2 0x8CD JUMP JUMPDEST PUSH1 0x40 MLOAD DUP1 SWAP2 SUB SWAP1 RETURN JUMPDEST PUSH0 PUSH1 0x20 MSTORE DUP1 PUSH0 MSTORE PUSH1 0x40 PUSH0 KECCAK256 PUSH0 SWAP2 POP SWAP1 POP DUP1 PUSH0 ADD PUSH0 SWAP1 SLOAD SWAP1 PUSH2 0x100 EXP SWAP1 DIV PUSH20 0xFFFFFFFFFFFFFFFFFFFFFFFFFFFFFFFFFFFFFFFF AND SWAP1 DUP1 PUSH1 0x1 ADD DUP1 SLOAD PUSH2 0x10A SWAP1 PUSH2 0x913 JUMP JUMPDEST DUP1 PUSH1 0x1F ADD PUSH1 0x20 DUP1 SWAP2 DIV MUL PUSH1 0x20 ADD PUSH1 0x40 MLOAD SWAP1 DUP2 ADD PUSH1 0x40 MSTORE DUP1 SWAP3 SWAP2 SWAP1 DUP2 DUP2 MSTORE PUSH1 0x20 ADD DUP3 DUP1 SLOAD PUSH2 0x136 SWAP1 PUSH2 0x913 JUMP JUMPDEST DUP1 ISZERO PUSH2 0x181 JUMPI DUP1 PUSH1 0x1F LT PUSH2 0x158 JUMPI PUSH2 0x100 DUP1 DUP4 SLOAD DIV MUL DUP4 MSTORE SWAP2 PUSH1 0x20 ADD SWAP2 PUSH2 0x181 JUMP JUMPDEST DUP3 ADD SWAP2 SWAP1 PUSH0 MSTORE PUSH1 0x20 PUSH0 KECCAK256 SWAP1 JUMPDEST DUP2 SLOAD DUP2 MSTORE SWAP1 PUSH1 0x1 ADD SWAP1 PUSH1 0x20 ADD DUP1 DUP4 GT PUSH2 0x164 JUMPI DUP3 SWAP1 SUB PUSH1 0x1F AND DUP3 ADD SWAP2 JUMPDEST POP POP POP POP POP SWAP1 DUP1 PUSH1 0x2 ADD DUP1 SLOAD PUSH2 0x196 SWAP1 PUSH2 0x913 JUMP JUMPDEST DUP1 PUSH1 0x1F ADD PUSH1 0x20 DUP1 SWAP2 DIV MUL PUSH1 0x20 ADD PUSH1 0x40 MLOAD SWAP1 DUP2 ADD PUSH1 0x40 MSTORE DUP1 SWAP3 SWAP2 SWAP1 DUP2 DUP2 MSTORE PUSH1 0x20 ADD DUP3 DUP1 SLOAD PUSH2 0x1C2 SWAP1 PUSH2 0x913 JUMP JUMPDEST DUP1 ISZERO PUSH2 0x20D JUMPI DUP1 PUSH1 0x1F LT PUSH2 0x1E4 JUMPI PUSH2 0x100 DUP1 DUP4 SLOAD DIV MUL DUP4 MSTORE SWAP2 PUSH1 0x20 ADD SWAP2 PUSH2 0x20D JUMP JUMPDEST DUP3 ADD SWAP2 SWAP1 PUSH0 MSTORE PUSH1 0x20 PUSH0 KECCAK256 SWAP1 JUMPDEST DUP2 SLOAD DUP2 MSTORE SWAP1 PUSH1 0x1 ADD SWAP1 PUSH1 0x20 ADD DUP1 DUP4 GT PUSH2 0x1F0 JUMPI DUP3 SWAP1 SUB PUSH1 0x1F AND DUP3 ADD SWAP2 JUMPDEST POP POP POP POP POP SWAP1 DUP1 PUSH1 0x3 ADD SLOAD SWAP1 DUP1 PUSH1 0x4 ADD SLOAD SWAP1 DUP1 PUSH1 0x5 ADD DUP1 SLOAD PUSH2 0x22E SWAP1 PUSH2 0x913 JUMP JUMPDEST DUP1 PUSH1 0x1F ADD PUSH1 0x20 DUP1 SWAP2 DIV MUL PUSH1 0x20 ADD PUSH1 0x40 MLOAD SWAP1 DUP2 ADD PUSH1 0x40 MSTORE DUP1 SWAP3 SWAP2 SWAP1 DUP2 DUP2 MSTORE PUSH1 0x20 ADD DUP3 DUP1 SLOAD PUSH2 0x25A SWAP1 PUSH2 0x913 JUMP JUMPDEST DUP1 ISZERO PUSH2 0x2A5 JUMPI DUP1 PUSH1 0x1F LT PUSH2 0x27C JUMPI PUSH2 0x100 DUP1 DUP4 SLOAD DIV MUL DUP4 MSTORE SWAP2 PUSH1 0x20 ADD SWAP2 PUSH2 0x2A5 JUMP JUMPDEST DUP3 ADD SWAP2 SWAP1 PUSH0 MSTORE PUSH1 0x20 PUSH0 KECCAK256 SWAP1 JUMPDEST DUP2 SLOAD DUP2 MSTORE SWAP1 PUSH1 0x1 ADD SWAP1 PUSH1 0x20 ADD DUP1 DUP4 GT PUSH2 0x288 JUMPI DUP3 SWAP1 SUB PUSH1 0x1F AND DUP3 ADD SWAP2 JUMPDEST POP POP POP POP POP SWAP1 DUP1 PUSH1 0x6 ADD SLOAD SWAP1 POP DUP8 JUMP JUMPDEST PUSH1 0x1 SLOAD DUP2 JUMP JUMPDEST PUSH0 DUP1 DUP6 GT PUSH2 0x2FE JUMPI PUSH1 0x40 MLOAD PUSH32 0x8C379A000000000000000000000000000000000000000000000000000000000 DUP2 MSTORE PUSH1 0x4 ADD PUSH2 0x2F5 SWAP1 PUSH2 0x9B3 JUMP JUMPDEST PUSH1 0x40 MLOAD DUP1 SWAP2 SUB SWAP1 REVERT JUMPDEST TIMESTAMP DUP3 GT PUSH2 0x340 JUMPI PUSH1 0x40 MLOAD PUSH32 0x8C379A000000000000000000000000000000000000000000000000000000000 DUP2 MSTORE PUSH1 0x4 ADD PUSH2 0x337 SWAP1 PUSH2 0xA41 JUMP JUMPDEST PUSH1 0x40 MLOAD DUP1 SWAP2 SUB SWAP1 REVERT JUMPDEST PUSH0 PUSH1 0x40 MLOAD DUP1 PUSH1 0xE0 ADD PUSH1 0x40 MSTORE DUP1 DUP11 PUSH20 0xFFFFFFFFFFFFFFFFFFFFFFFFFFFFFFFFFFFFFFFF AND DUP2 MSTORE PUSH1 0x20 ADD DUP10 DUP2 MSTORE PUSH1 0x20 ADD DUP9 DUP2 MSTORE PUSH1 0x20 ADD DUP8 DUP2 MSTORE PUSH1 0x20 ADD DUP7 DUP2 MSTORE PUSH1 0x20 ADD DUP6 DUP2 MSTORE PUSH1 0x20 ADD DUP5 DUP2 MSTORE POP SWAP1 POP DUP1 PUSH0 DUP1 PUSH1 0x1 SLOAD DUP2 MSTORE PUSH1 0x20 ADD SWAP1 DUP2 MSTORE PUSH1 0x20 ADD PUSH0 KECCAK256 PUSH0 DUP3 ADD MLOAD DUP2 PUSH0 ADD PUSH0 PUSH2 0x100 EXP DUP2 SLOAD DUP2 PUSH20 0xFFFFFFFFFFFFFFFFFFFFFFFFFFFFFFFFFFFFFFFF MUL NOT AND SWAP1 DUP4 PUSH20 0xFFFFFFFFFFFFFFFFFFFFFFFFFFFFFFFFFFFFFFFF AND MUL OR SWAP1 SSTORE POP PUSH1 0x20 DUP3 ADD MLOAD DUP2 PUSH1 0x1 ADD SWAP1 DUP2 PUSH2 0x3F8 SWAP2 SWAP1 PUSH2 0xBFC JUMP JUMPDEST POP PUSH1 0x40 DUP3 ADD MLOAD DUP2 PUSH1 0x2 ADD SWAP1 DUP2 PUSH2 0x40E SWAP2 SWAP1 PUSH2 0xBFC JUMP JUMPDEST POP PUSH1 0x60 DUP3 ADD MLOAD DUP2 PUSH1 0x3 ADD SSTORE PUSH1 0x80 DUP3 ADD MLOAD DUP2 PUSH1 0x4 ADD SSTORE PUSH1 0xA0 DUP3 ADD MLOAD DUP2 PUSH1 0x5 ADD SWAP1 DUP2 PUSH2 0x438 SWAP2 SWAP1 PUSH2 0xBFC JUMP JUMPDEST POP PUSH1 0xC0 DUP3 ADD MLOAD DUP2 PUSH1 0x6 ADD SSTORE SWAP1 POP POP PUSH1 0x1 PUSH0 DUP2 SLOAD DUP1 SWAP3 SWAP2 SWAP1 PUSH2 0x458 SWAP1 PUSH2 0xCF8 JUMP JUMPDEST SWAP2 SWAP1 POP SSTORE POP PUSH32 0xC84D18F7184F599C83431BA680257B738C98ED521CAF037E0C7443264FC69D09 DUP10 PUSH1 0x40 MLOAD PUSH2 0x48C SWAP2 SWAP1 PUSH2 0xD89 JUMP JUMPDEST PUSH1 0x40 MLOAD DUP1 SWAP2 SUB SWAP1 LOG1 PUSH1 0x1 SWAP2 POP POP SWAP8 SWAP7 POP POP POP POP POP POP POP JUMP JUMPDEST PUSH0 PUSH1 0x40 MLOAD SWAP1 POP SWAP1 JUMP JUMPDEST PUSH0 DUP1 REVERT JUMPDEST PUSH0 DUP1 REVERT JUMPDEST PUSH0 DUP2 SWAP1 POP SWAP2 SWAP1 POP JUMP JUMPDEST PUSH2 0x4C7 DUP2 PUSH2 0x4B5 JUMP JUMPDEST DUP2 EQ PUSH2 0x4D1 JUMPI PUSH0 DUP1 REVERT JUMPDEST POP JUMP JUMPDEST PUSH0 DUP2 CALLDATALOAD SWAP1 POP PUSH2 0x4E2 DUP2 PUSH2 0x4BE JUMP JUMPDEST SWAP3 SWAP2 POP POP JUMP JUMPDEST PUSH0 PUSH1 0x20 DUP3 DUP5 SUB SLT ISZERO PUSH2 0x4FD JUMPI PUSH2 0x4FC PUSH2 0x4AD JUMP JUMPDEST JUMPDEST PUSH0 PUSH2 0x50A DUP5 DUP3 DUP6 ADD PUSH2 0x4D4 JUMP JUMPDEST SWAP2 POP POP SWAP3 SWAP2 POP POP JUMP JUMPDEST PUSH0 PUSH20 0xFFFFFFFFFFFFFFFFFFFFFFFFFFFFFFFFFFFFFFFF DUP3 AND SWAP1 POP SWAP2 SWAP1 POP JUMP JUMPDEST PUSH0 PUSH2 0x53C DUP3 PUSH2 0x513 JUMP JUMPDEST SWAP1 POP SWAP2 SWAP1 POP JUMP JUMPDEST PUSH2 0x54C DUP2 PUSH2 0x532 JUMP JUMPDEST DUP3 MSTORE POP POP JUMP JUMPDEST PUSH0 DUP2 MLOAD SWAP1 POP SWAP2 SWAP1 POP JUMP JUMPDEST PUSH0 DUP3 DUP3 MSTORE PUSH1 0x20 DUP3 ADD SWAP1 POP SWAP3 SWAP2 POP POP JUMP JUMPDEST DUP3 DUP2 DUP4 MCOPY PUSH0 DUP4 DUP4 ADD MSTORE POP POP POP JUMP JUMPDEST PUSH0 PUSH1 0x1F NOT PUSH1 0x1F DUP4 ADD AND SWAP1 POP SWAP2 SWAP1 POP JUMP JUMPDEST PUSH0 PUSH2 0x594 DUP3 PUSH2 0x552 JUMP JUMPDEST PUSH2 0x59E DUP2 DUP6 PUSH2 0x55C JUMP JUMPDEST SWAP4 POP PUSH2 0x5AE DUP2 DUP6 PUSH1 0x20 DUP7 ADD PUSH2 0x56C JUMP JUMPDEST PUSH2 0x5B7 DUP2 PUSH2 0x57A JUMP JUMPDEST DUP5 ADD SWAP2 POP POP SWAP3 SWAP2 POP POP JUMP JUMPDEST PUSH2 0x5CB DUP2 PUSH2 0x4B5 JUMP JUMPDEST DUP3 MSTORE POP POP JUMP JUMPDEST PUSH0 PUSH1 0xE0 DUP3 ADD SWAP1 POP PUSH2 0x5E4 PUSH0 DUP4 ADD DUP11 PUSH2 0x543 JUMP JUMPDEST DUP2 DUP2 SUB PUSH1 0x20 DUP4 ADD MSTORE PUSH2 0x5F6 DUP2 DUP10 PUSH2 0x58A JUMP JUMPDEST SWAP1 POP DUP2 DUP2 SUB PUSH1 0x40 DUP4 ADD MSTORE PUSH2 0x60A DUP2 DUP9 PUSH2 0x58A JUMP JUMPDEST SWAP1 POP PUSH2 0x619 PUSH1 0x60 DUP4 ADD DUP8 PUSH2 0x5C2 JUMP JUMPDEST PUSH2 0x626 PUSH1 0x80 DUP4 ADD DUP7 PUSH2 0x5C2 JUMP JUMPDEST DUP2 DUP2 SUB PUSH1 0xA0 DUP4 ADD MSTORE PUSH2 0x638 DUP2 DUP6 PUSH2 0x58A JUMP JUMPDEST SWAP1 POP PUSH2 0x647 PUSH1 0xC0 DUP4 ADD DUP5 PUSH2 0x5C2 JUMP JUMPDEST SWAP9 SWAP8 POP POP POP POP POP POP POP POP JUMP JUMPDEST PUSH0 PUSH1 0x20 DUP3 ADD SWAP1 POP PUSH2 0x666 PUSH0 DUP4 ADD DUP5 PUSH2 0x5C2 JUMP JUMPDEST SWAP3 SWAP2 POP POP JUMP JUMPDEST PUSH2 0x675 DUP2 PUSH2 0x532 JUMP JUMPDEST DUP2 EQ PUSH2 0x67F JUMPI PUSH0 DUP1 REVERT JUMPDEST POP JUMP JUMPDEST PUSH0 DUP2 CALLDATALOAD SWAP1 POP PUSH2 0x690 DUP2 PUSH2 0x66C JUMP JUMPDEST SWAP3 SWAP2 POP POP JUMP JUMPDEST PUSH0 DUP1 REVERT JUMPDEST PUSH0 DUP1 REVERT JUMPDEST PUSH32 0x4E487B7100000000000000000000000000000000000000000000000000000000 PUSH0 MSTORE PUSH1 0x41 PUSH1 0x4 MSTORE PUSH1 0x24 PUSH0 REVERT JUMPDEST PUSH2 0x6D4 DUP3 PUSH2 0x57A JUMP JUMPDEST DUP2 ADD DUP2 DUP2 LT PUSH8 0xFFFFFFFFFFFFFFFF DUP3 GT OR ISZERO PUSH2 0x6F3 JUMPI PUSH2 0x6F2 PUSH2 0x69E JUMP JUMPDEST JUMPDEST DUP1 PUSH1 0x40 MSTORE POP POP POP JUMP JUMPDEST PUSH0 PUSH2 0x705 PUSH2 0x4A4 JUMP JUMPDEST SWAP1 POP PUSH2 0x711 DUP3 DUP3 PUSH2 0x6CB JUMP JUMPDEST SWAP2 SWAP1 POP JUMP JUMPDEST PUSH0 PUSH8 0xFFFFFFFFFFFFFFFF DUP3 GT ISZERO PUSH2 0x730 JUMPI PUSH2 0x72F PUSH2 0x69E JUMP JUMPDEST JUMPDEST PUSH2 0x739 DUP3 PUSH2 0x57A JUMP JUMPDEST SWAP1 POP PUSH1 0x20 DUP2 ADD SWAP1 POP SWAP2 SWAP1 POP JUMP JUMPDEST DUP3 DUP2 DUP4 CALLDATACOPY PUSH0 DUP4 DUP4 ADD MSTORE POP POP POP JUMP JUMPDEST PUSH0 PUSH2 0x766 PUSH2 0x761 DUP5 PUSH2 0x716 JUMP JUMPDEST PUSH2 0x6FC JUMP JUMPDEST SWAP1 POP DUP3 DUP2 MSTORE PUSH1 0x20 DUP2 ADD DUP5 DUP5 DUP5 ADD GT ISZERO PUSH2 0x782 JUMPI PUSH2 0x781 PUSH2 0x69A JUMP JUMPDEST JUMPDEST PUSH2 0x78D DUP5 DUP3 DUP6 PUSH2 0x746 JUMP JUMPDEST POP SWAP4 SWAP3 POP POP POP JUMP JUMPDEST PUSH0 DUP3 PUSH1 0x1F DUP4 ADD SLT PUSH2 0x7A9 JUMPI PUSH2 0x7A8 PUSH2 0x696 JUMP JUMPDEST JUMPDEST DUP2 CALLDATALOAD PUSH2 0x7B9 DUP5 DUP3 PUSH1 0x20 DUP7 ADD PUSH2 0x754 JUMP JUMPDEST SWAP2 POP POP SWAP3 SWAP2 POP POP JUMP JUMPDEST PUSH0 DUP1 PUSH0 DUP1 PUSH0 DUP1 PUSH0 PUSH1 0xE0 DUP9 DUP11 SUB SLT ISZERO PUSH2 0x7DD JUMPI PUSH2 0x7DC PUSH2 0x4AD JUMP JUMPDEST JUMPDEST PUSH0 PUSH2 0x7EA DUP11 DUP3 DUP12 ADD PUSH2 0x682 JUMP JUMPDEST SWAP8 POP POP PUSH1 0x20 DUP9 ADD CALLDATALOAD PUSH8 0xFFFFFFFFFFFFFFFF DUP2 GT ISZERO PUSH2 0x80B JUMPI PUSH2 0x80A PUSH2 0x4B1 JUMP JUMPDEST JUMPDEST PUSH2 0x817 DUP11 DUP3 DUP12 ADD PUSH2 0x795 JUMP JUMPDEST SWAP7 POP POP PUSH1 0x40 DUP9 ADD CALLDATALOAD PUSH8 0xFFFFFFFFFFFFFFFF DUP2 GT ISZERO PUSH2 0x838 JUMPI PUSH2 0x837 PUSH2 0x4B1 JUMP JUMPDEST JUMPDEST PUSH2 0x844 DUP11 DUP3 DUP12 ADD PUSH2 0x795 JUMP JUMPDEST SWAP6 POP POP PUSH1 0x60 PUSH2 0x855 DUP11 DUP3 DUP12 ADD PUSH2 0x4D4 JUMP JUMPDEST SWAP5 POP POP PUSH1 0x80 PUSH2 0x866 DUP11 DUP3 DUP12 ADD PUSH2 0x4D4 JUMP JUMPDEST SWAP4 POP POP PUSH1 0xA0 DUP9 ADD CALLDATALOAD PUSH8 0xFFFFFFFFFFFFFFFF DUP2 GT ISZERO PUSH2 0x887 JUMPI PUSH2 0x886 PUSH2 0x4B1 JUMP JUMPDEST JUMPDEST PUSH2 0x893 DUP11 DUP3 DUP12 ADD PUSH2 0x795 JUMP JUMPDEST SWAP3 POP POP PUSH1 0xC0 PUSH2 0x8A4 DUP11 DUP3 DUP12 ADD PUSH2 0x4D4 JUMP JUMPDEST SWAP2 POP POP SWAP3 SWAP6 SWAP9 SWAP2 SWAP5 SWAP8 POP SWAP3 SWAP6 POP JUMP JUMPDEST PUSH0 DUP2 ISZERO ISZERO SWAP1 POP SWAP2 SWAP1 POP JUMP JUMPDEST PUSH2 0x8C7 DUP2 PUSH2 0x8B3 JUMP JUMPDEST DUP3 MSTORE POP POP JUMP JUMPDEST PUSH0 PUSH1 0x20 DUP3 ADD SWAP1 POP PUSH2 0x8E0 PUSH0 DUP4 ADD DUP5 PUSH2 0x8BE JUMP JUMPDEST SWAP3 SWAP2 POP POP JUMP JUMPDEST PUSH32 0x4E487B7100000000000000000000000000000000000000000000000000000000 PUSH0 MSTORE PUSH1 0x22 PUSH1 0x4 MSTORE PUSH1 0x24 PUSH0 REVERT JUMPDEST PUSH0 PUSH1 0x2 DUP3 DIV SWAP1 POP PUSH1 0x1 DUP3 AND DUP1 PUSH2 0x92A JUMPI PUSH1 0x7F DUP3 AND SWAP2 POP JUMPDEST PUSH1 0x20 DUP3 LT DUP2 SUB PUSH2 0x93D JUMPI PUSH2 0x93C PUSH2 0x8E6 JUMP JUMPDEST JUMPDEST POP SWAP2 SWAP1 POP JUMP JUMPDEST PUSH32 0x46756E64207265717569726564206D7573742062652067726561746572207468 PUSH0 DUP3 ADD MSTORE PUSH32 0x616E203000000000000000000000000000000000000000000000000000000000 PUSH1 0x20 DUP3 ADD MSTORE POP JUMP JUMPDEST PUSH0 PUSH2 0x99D PUSH1 0x24 DUP4 PUSH2 0x55C JUMP JUMPDEST SWAP2 POP PUSH2 0x9A8 DUP3 PUSH2 0x943 JUMP JUMPDEST PUSH1 0x40 DUP3 ADD SWAP1 POP SWAP2 SWAP1 POP JUMP JUMPDEST PUSH0 PUSH1 0x20 DUP3 ADD SWAP1 POP DUP2 DUP2 SUB PUSH0 DUP4 ADD MSTORE PUSH2 0x9CA DUP2 PUSH2 0x991 JUMP JUMPDEST SWAP1 POP SWAP2 SWAP1 POP JUMP JUMPDEST PUSH32 0x446561646C696E65206D7573742062652061667465722063757272656E742074 PUSH0 DUP3 ADD MSTORE PUSH32 0x696D650000000000000000000000000000000000000000000000000000000000 PUSH1 0x20 DUP3 ADD MSTORE POP JUMP JUMPDEST PUSH0 PUSH2 0xA2B PUSH1 0x23 DUP4 PUSH2 0x55C JUMP JUMPDEST SWAP2 POP PUSH2 0xA36 DUP3 PUSH2 0x9D1 JUMP JUMPDEST PUSH1 0x40 DUP3 ADD SWAP1 POP SWAP2 SWAP1 POP JUMP JUMPDEST PUSH0 PUSH1 0x20 DUP3 ADD SWAP1 POP DUP2 DUP2 SUB PUSH0 DUP4 ADD MSTORE PUSH2 0xA58 DUP2 PUSH2 0xA1F JUMP JUMPDEST SWAP1 POP SWAP2 SWAP1 POP JUMP JUMPDEST PUSH0 DUP2 SWAP1 POP DUP2 PUSH0 MSTORE PUSH1 0x20 PUSH0 KECCAK256 SWAP1 POP SWAP2 SWAP1 POP JUMP JUMPDEST PUSH0 PUSH1 0x20 PUSH1 0x1F DUP4 ADD DIV SWAP1 POP SWAP2 SWAP1 POP JUMP JUMPDEST PUSH0 DUP3 DUP3 SHL SWAP1 POP SWAP3 SWAP2 POP POP JUMP JUMPDEST PUSH0 PUSH1 0x8 DUP4 MUL PUSH2 0xABB PUSH32 0xFFFFFFFFFFFFFFFFFFFFFFFFFFFFFFFFFFFFFFFFFFFFFFFFFFFFFFFFFFFFFFFF DUP3 PUSH2 0xA80 JUMP JUMPDEST PUSH2 0xAC5 DUP7 DUP4 PUSH2 0xA80 JUMP JUMPDEST SWAP6 POP DUP1 NOT DUP5 AND SWAP4 POP DUP1 DUP7 AND DUP5 OR SWAP3 POP POP POP SWAP4 SWAP3 POP POP POP JUMP JUMPDEST PUSH0 DUP2 SWAP1 POP SWAP2 SWAP1 POP JUMP JUMPDEST PUSH0 PUSH2 0xB00 PUSH2 0xAFB PUSH2 0xAF6 DUP5 PUSH2 0x4B5 JUMP JUMPDEST PUSH2 0xADD JUMP JUMPDEST PUSH2 0x4B5 JUMP JUMPDEST SWAP1 POP SWAP2 SWAP1 POP JUMP JUMPDEST PUSH0 DUP2 SWAP1 POP SWAP2 SWAP1 POP JUMP JUMPDEST PUSH2 0xB19 DUP4 PUSH2 0xAE6 JUMP JUMPDEST PUSH2 0xB2D PUSH2 0xB25 DUP3 PUSH2 0xB07 JUMP JUMPDEST DUP5 DUP5 SLOAD PUSH2 0xA8C JUMP JUMPDEST DUP3 SSTORE POP POP POP POP JUMP JUMPDEST PUSH0 SWAP1 JUMP JUMPDEST PUSH2 0xB41 PUSH2 0xB35 JUMP JUMPDEST PUSH2 0xB4C DUP2 DUP5 DUP5 PUSH2 0xB10 JUMP JUMPDEST POP POP POP JUMP JUMPDEST JUMPDEST DUP2 DUP2 LT ISZERO PUSH2 0xB6F JUMPI PUSH2 0xB64 PUSH0 DUP3 PUSH2 0xB39 JUMP JUMPDEST PUSH1 0x1 DUP2 ADD SWAP1 POP PUSH2 0xB52 JUMP JUMPDEST POP POP JUMP JUMPDEST PUSH1 0x1F DUP3 GT ISZERO PUSH2 0xBB4 JUMPI PUSH2 0xB85 DUP2 PUSH2 0xA5F JUMP JUMPDEST PUSH2 0xB8E DUP5 PUSH2 0xA71 JUMP JUMPDEST DUP2 ADD PUSH1 0x20 DUP6 LT ISZERO PUSH2 0xB9D JUMPI DUP2 SWAP1 POP JUMPDEST PUSH2 0xBB1 PUSH2 0xBA9 DUP6 PUSH2 0xA71 JUMP JUMPDEST DUP4 ADD DUP3 PUSH2 0xB51 JUMP JUMPDEST POP POP JUMPDEST POP POP POP JUMP JUMPDEST PUSH0 DUP3 DUP3 SHR SWAP1 POP SWAP3 SWAP2 POP POP JUMP JUMPDEST PUSH0 PUSH2 0xBD4 PUSH0 NOT DUP5 PUSH1 0x8 MUL PUSH2 0xBB9 JUMP JUMPDEST NOT DUP1 DUP4 AND SWAP2 POP POP SWAP3 SWAP2 POP POP JUMP JUMPDEST PUSH0 PUSH2 0xBEC DUP4 DUP4 PUSH2 0xBC5 JUMP JUMPDEST SWAP2 POP DUP3 PUSH1 0x2 MUL DUP3 OR SWAP1 POP SWAP3 SWAP2 POP POP JUMP JUMPDEST PUSH2 0xC05 DUP3 PUSH2 0x552 JUMP JUMPDEST PUSH8 0xFFFFFFFFFFFFFFFF DUP2 GT ISZERO PUSH2 0xC1E JUMPI PUSH2 0xC1D PUSH2 0x69E JUMP JUMPDEST JUMPDEST PUSH2 0xC28 DUP3 SLOAD PUSH2 0x913 JUMP JUMPDEST PUSH2 0xC33 DUP3 DUP3 DUP6 PUSH2 0xB73 JUMP JUMPDEST PUSH0 PUSH1 0x20 SWAP1 POP PUSH1 0x1F DUP4 GT PUSH1 0x1 DUP2 EQ PUSH2 0xC64 JUMPI PUSH0 DUP5 ISZERO PUSH2 0xC52 JUMPI DUP3 DUP8 ADD MLOAD SWAP1 POP JUMPDEST PUSH2 0xC5C DUP6 DUP3 PUSH2 0xBE1 JUMP JUMPDEST DUP7 SSTORE POP PUSH2 0xCC3 JUMP JUMPDEST PUSH1 0x1F NOT DUP5 AND PUSH2 0xC72 DUP7 PUSH2 0xA5F JUMP JUMPDEST PUSH0 JUMPDEST DUP3 DUP2 LT ISZERO PUSH2 0xC99 JUMPI DUP5 DUP10 ADD MLOAD DUP3 SSTORE PUSH1 0x1 DUP3 ADD SWAP2 POP PUSH1 0x20 DUP6 ADD SWAP5 POP PUSH1 0x20 DUP2 ADD SWAP1 POP PUSH2 0xC74 JUMP JUMPDEST DUP7 DUP4 LT ISZERO PUSH2 0xCB6 JUMPI DUP5 DUP10 ADD MLOAD PUSH2 0xCB2 PUSH1 0x1F DUP10 AND DUP3 PUSH2 0xBC5 JUMP JUMPDEST DUP4 SSTORE POP JUMPDEST PUSH1 0x1 PUSH1 0x2 DUP9 MUL ADD DUP9 SSTORE POP POP POP JUMPDEST POP POP POP POP POP POP JUMP JUMPDEST PUSH32 0x4E487B7100000000000000000000000000000000000000000000000000000000 PUSH0 MSTORE PUSH1 0x11 PUSH1 0x4 MSTORE PUSH1 0x24 PUSH0 REVERT JUMPDEST PUSH0 PUSH2 0xD02 DUP3 PUSH2 0x4B5 JUMP JUMPDEST SWAP2 POP PUSH32 0xFFFFFFFFFFFFFFFFFFFFFFFFFFFFFFFFFFFFFFFFFFFFFFFFFFFFFFFFFFFFFFFF DUP3 SUB PUSH2 0xD34 JUMPI PUSH2 0xD33 PUSH2 0xCCB JUMP JUMPDEST JUMPDEST PUSH1 0x1 DUP3 ADD SWAP1 POP SWAP2 SWAP1 POP JUMP JUMPDEST PUSH32 0x43616D706169676E20437265617465205375636365737366756C6C7900000000 PUSH0 DUP3 ADD MSTORE POP JUMP JUMPDEST PUSH0 PUSH2 0xD73 PUSH1 0x1C DUP4 PUSH2 0x55C JUMP JUMPDEST SWAP2 POP PUSH2 0xD7E DUP3 PUSH2 0xD3F JUMP JUMPDEST PUSH1 0x20 DUP3 ADD SWAP1 POP SWAP2 SWAP1 POP JUMP JUMPDEST PUSH0 PUSH1 0x40 DUP3 ADD SWAP1 POP DUP2 DUP2 SUB PUSH0 DUP4 ADD MSTORE PUSH2 0xDA0 DUP2 PUSH2 0xD67 JUMP JUMPDEST SWAP1 POP PUSH2 0xDAF PUSH1 0x20 DUP4 ADD DUP5 PUSH2 0x543 JUMP JUMPDEST SWAP3 SWAP2 POP POP JUMP INVALID LOG2 PUSH5 0x6970667358 0x22 SLT KECCAK256 0xE9 0xF7 SWAP11 SDIV ADD EXTCODESIZE BLOBBASEFEE SWAP11 0xF7 SWAP1 LT 0xAD 0xD5 0xB6 PUSH11 0x251BF68CD6CA4EA7A942E9 PUSH8 0x1F689B5A2564736F PUSH13 0x634300081A0033000000000000 "
		},
		"gasEstimates": {
			"creation": {
				"codeDepositCost": "712600",
				"executionCost": "5750",
				"totalCost": "718350"
			},
			"external": {
				"Campaigns(uint256)": "infinite",
				"createCampaign(address,string,string,uint256,uint256,string,uint256)": "infinite",
				"numOfListCampaign()": "2425"
			}
		},
		"methodIdentifiers": {
			"Campaigns(uint256)": "4013be10",
			"createCampaign(address,string,string,uint256,uint256,string,uint256)": "fe91349d",
			"numOfListCampaign()": "fd39911b"
		}
	},
	"abi": [
		{
			"anonymous": false,
			"inputs": [
				{
					"indexed": false,
					"internalType": "string",
					"name": "_message",
					"type": "string"
				},
				{
					"indexed": false,
					"internalType": "address",
					"name": "_owner",
					"type": "address"
				}
			],
			"name": "campaignCreateSuccess",
			"type": "event"
		},
		{
			"inputs": [
				{
					"internalType": "uint256",
					"name": "",
					"type": "uint256"
				}
			],
			"name": "Campaigns",
			"outputs": [
				{
					"internalType": "address",
					"name": "owner",
					"type": "address"
				},
				{
					"internalType": "string",
					"name": "name",
					"type": "string"
				},
				{
					"internalType": "string",
					"name": "description",
					"type": "string"
				},
				{
					"internalType": "uint256",
					"name": "fund_required",
					"type": "uint256"
				},
				{
					"internalType": "uint256",
					"name": "recive_amount",
					"type": "uint256"
				},
				{
					"internalType": "string",
					"name": "image",
					"type": "string"
				},
				{
					"internalType": "uint256",
					"name": "deadLine",
					"type": "uint256"
				}
			],
			"stateMutability": "view",
			"type": "function"
		},
		{
			"inputs": [
				{
					"internalType": "address",
					"name": "_owner",
					"type": "address"
				},
				{
					"internalType": "string",
					"name": "_name",
					"type": "string"
				},
				{
					"internalType": "string",
					"name": "_description",
					"type": "string"
				},
				{
					"internalType": "uint256",
					"name": "_fund_required",
					"type": "uint256"
				},
				{
					"internalType": "uint256",
					"name": "_recive_amount",
					"type": "uint256"
				},
				{
					"internalType": "string",
					"name": "_image",
					"type": "string"
				},
				{
					"internalType": "uint256",
					"name": "_deadLine",
					"type": "uint256"
				}
			],
			"name": "createCampaign",
			"outputs": [
				{
					"internalType": "bool",
					"name": "",
					"type": "bool"
				}
			],
			"stateMutability": "nonpayable",
			"type": "function"
		},
		{
			"inputs": [],
			"name": "numOfListCampaign",
			"outputs": [
				{
					"internalType": "uint256",
					"name": "",
					"type": "uint256"
				}
			],
			"stateMutability": "view",
			"type": "function"
		}
	]
}